{
  "contractName": "FKCController",
  "abi": [
    {
      "inputs": [],
      "stateMutability": "nonpayable",
      "type": "constructor"
    },
    {
      "anonymous": false,
      "inputs": [
        {
          "indexed": false,
          "internalType": "uint256",
          "name": "tokenId",
          "type": "uint256"
        },
        {
          "indexed": false,
          "internalType": "uint8",
          "name": "result",
          "type": "uint8"
        }
      ],
      "name": "GameCompleted",
      "type": "event"
    },
    {
      "anonymous": false,
      "inputs": [
        {
          "indexed": false,
          "internalType": "bytes4",
          "name": "move",
          "type": "bytes4"
        }
      ],
      "name": "MoveMade",
      "type": "event"
    },
    {
      "anonymous": false,
      "inputs": [
        {
          "indexed": false,
          "internalType": "address",
          "name": "player",
          "type": "address"
        },
        {
          "indexed": false,
          "internalType": "bytes4",
          "name": "move",
          "type": "bytes4"
        },
        {
          "indexed": false,
          "internalType": "uint256",
          "name": "currentStep",
          "type": "uint256"
        }
      ],
      "name": "MoveProposed",
      "type": "event"
    },
    {
      "anonymous": false,
      "inputs": [
        {
          "indexed": false,
          "internalType": "uint256",
          "name": "currentToken",
          "type": "uint256"
        }
      ],
      "name": "NewGameCreated",
      "type": "event"
    },
    {
      "anonymous": false,
      "inputs": [
        {
          "indexed": false,
          "internalType": "bool",
          "name": "isBlack",
          "type": "bool"
        },
        {
          "indexed": false,
          "internalType": "uint256",
          "name": "expirationTimer",
          "type": "uint256"
        }
      ],
      "name": "NextMoveCreated",
      "type": "event"
    },
    {
      "anonymous": false,
      "inputs": [
        {
          "indexed": true,
          "internalType": "address",
          "name": "previousOwner",
          "type": "address"
        },
        {
          "indexed": true,
          "internalType": "address",
          "name": "newOwner",
          "type": "address"
        }
      ],
      "name": "OwnershipTransferStarted",
      "type": "event"
    },
    {
      "anonymous": false,
      "inputs": [
        {
          "indexed": true,
          "internalType": "address",
          "name": "previousOwner",
          "type": "address"
        },
        {
          "indexed": true,
          "internalType": "address",
          "name": "newOwner",
          "type": "address"
        }
      ],
      "name": "OwnershipTransferred",
      "type": "event"
    },
    {
      "anonymous": false,
      "inputs": [
        {
          "indexed": false,
          "internalType": "address",
          "name": "userAddress",
          "type": "address"
        },
        {
          "indexed": false,
          "internalType": "bool",
          "name": "isBlack",
          "type": "bool"
        }
      ],
      "name": "UserRegistered",
      "type": "event"
    },
    {
      "inputs": [],
      "name": "BLACK_RESIGN",
      "outputs": [
        {
          "internalType": "uint8",
          "name": "",
          "type": "uint8"
        }
      ],
      "stateMutability": "view",
      "type": "function"
    },
    {
      "inputs": [],
      "name": "BLACK_WIN",
      "outputs": [
        {
          "internalType": "uint8",
          "name": "",
          "type": "uint8"
        }
      ],
      "stateMutability": "view",
      "type": "function"
    },
    {
      "inputs": [],
      "name": "DRAW",
      "outputs": [
        {
          "internalType": "uint8",
          "name": "",
          "type": "uint8"
        }
      ],
      "stateMutability": "view",
      "type": "function"
    },
    {
      "inputs": [],
      "name": "MAX_TIME_PER_MOVE",
      "outputs": [
        {
          "internalType": "uint256",
          "name": "",
          "type": "uint256"
        }
      ],
      "stateMutability": "view",
      "type": "function"
    },
    {
      "inputs": [],
      "name": "STALEMATE",
      "outputs": [
        {
          "internalType": "uint8",
          "name": "",
          "type": "uint8"
        }
      ],
      "stateMutability": "view",
      "type": "function"
    },
    {
      "inputs": [],
      "name": "WHITE_RESIGN",
      "outputs": [
        {
          "internalType": "uint8",
          "name": "",
          "type": "uint8"
        }
      ],
      "stateMutability": "view",
      "type": "function"
    },
    {
      "inputs": [],
      "name": "WHITE_WIN",
      "outputs": [
        {
          "internalType": "uint8",
          "name": "",
          "type": "uint8"
        }
      ],
      "stateMutability": "view",
      "type": "function"
    },
    {
      "inputs": [],
      "name": "acceptOwnership",
      "outputs": [],
      "stateMutability": "nonpayable",
      "type": "function"
    },
    {
      "inputs": [],
      "name": "currentToken",
      "outputs": [
        {
          "internalType": "uint256",
          "name": "",
          "type": "uint256"
        }
      ],
      "stateMutability": "view",
      "type": "function"
    },
    {
      "inputs": [],
      "name": "gameState",
      "outputs": [
        {
          "internalType": "contract IFKCGame",
          "name": "",
          "type": "address"
        }
      ],
      "stateMutability": "view",
      "type": "function"
    },
    {
      "inputs": [
        {
          "internalType": "uint256",
          "name": "",
          "type": "uint256"
        }
      ],
      "name": "games",
      "outputs": [
        {
          "internalType": "uint256",
          "name": "gameId",
          "type": "uint256"
        },
        {
          "internalType": "uint256",
          "name": "nextPlayTimer",
          "type": "uint256"
        },
        {
          "internalType": "bool",
          "name": "isBlackToPlay",
          "type": "bool"
        },
        {
          "internalType": "uint256",
          "name": "totalTokens",
          "type": "uint256"
        },
        {
          "internalType": "uint256",
          "name": "proposeResign",
          "type": "uint256"
        },
        {
          "internalType": "uint256",
          "name": "proposeDraw",
          "type": "uint256"
        },
        {
          "internalType": "uint256",
          "name": "currentStep",
          "type": "uint256"
        }
      ],
      "stateMutability": "view",
      "type": "function"
    },
    {
      "inputs": [
        {
          "internalType": "bytes4",
          "name": "",
          "type": "bytes4"
        }
      ],
      "name": "movesRequest",
      "outputs": [
        {
          "internalType": "uint256",
          "name": "",
          "type": "uint256"
        }
      ],
      "stateMutability": "view",
      "type": "function"
    },
    {
      "inputs": [],
      "name": "owner",
      "outputs": [
        {
          "internalType": "address",
          "name": "",
          "type": "address"
        }
      ],
      "stateMutability": "view",
      "type": "function"
    },
    {
      "inputs": [],
      "name": "pendingOwner",
      "outputs": [
        {
          "internalType": "address",
          "name": "",
          "type": "address"
        }
      ],
      "stateMutability": "view",
      "type": "function"
    },
    {
      "inputs": [
        {
          "internalType": "address",
          "name": "",
          "type": "address"
        }
      ],
      "name": "playerMovesMade",
      "outputs": [
        {
          "internalType": "uint256",
          "name": "",
          "type": "uint256"
        }
      ],
      "stateMutability": "view",
      "type": "function"
    },
    {
      "inputs": [
        {
          "internalType": "address",
          "name": "",
          "type": "address"
        }
      ],
      "name": "registeredBlackPlayer",
      "outputs": [
        {
          "internalType": "uint256",
          "name": "",
          "type": "uint256"
        }
      ],
      "stateMutability": "view",
      "type": "function"
    },
    {
      "inputs": [
        {
          "internalType": "address",
          "name": "",
          "type": "address"
        }
      ],
      "name": "registeredWhitePlayer",
      "outputs": [
        {
          "internalType": "uint256",
          "name": "",
          "type": "uint256"
        }
      ],
      "stateMutability": "view",
      "type": "function"
    },
    {
      "inputs": [
        {
          "internalType": "address",
          "name": "newOwner",
          "type": "address"
        }
      ],
      "name": "transferOwnership",
      "outputs": [],
      "stateMutability": "nonpayable",
      "type": "function"
    },
    {
      "inputs": [],
      "name": "renounceOwnership",
      "outputs": [],
      "stateMutability": "nonpayable",
      "type": "function"
    },
    {
      "inputs": [],
      "name": "getCurrentGameState",
      "outputs": [
        {
          "components": [
            {
              "internalType": "address[]",
              "name": "whitePlayers",
              "type": "address[]"
            },
            {
              "internalType": "address[]",
              "name": "blackPlayers",
              "type": "address[]"
            },
            {
              "internalType": "string",
              "name": "currentGameState",
              "type": "string"
            },
            {
              "internalType": "bytes4[]",
              "name": "movesHistory",
              "type": "bytes4[]"
            },
            {
              "internalType": "bool",
              "name": "gameCompleted",
              "type": "bool"
            },
            {
              "internalType": "uint8",
              "name": "result",
              "type": "uint8"
            }
          ],
          "internalType": "struct IFKCGame.GameState",
          "name": "",
          "type": "tuple"
        }
      ],
      "stateMutability": "view",
      "type": "function"
    },
    {
      "inputs": [],
      "name": "getCurrentGame",
      "outputs": [
        {
          "components": [
            {
              "internalType": "uint256",
              "name": "gameId",
              "type": "uint256"
            },
            {
              "internalType": "uint256",
              "name": "nextPlayTimer",
              "type": "uint256"
            },
            {
              "internalType": "bool",
              "name": "isBlackToPlay",
              "type": "bool"
            },
            {
              "internalType": "uint256",
              "name": "totalTokens",
              "type": "uint256"
            },
            {
              "internalType": "bytes4[]",
              "name": "proposedMoves",
              "type": "bytes4[]"
            },
            {
              "internalType": "uint256",
              "name": "proposeResign",
              "type": "uint256"
            },
            {
              "internalType": "uint256",
              "name": "proposeDraw",
              "type": "uint256"
            },
            {
              "internalType": "uint256",
              "name": "currentStep",
              "type": "uint256"
            }
          ],
          "internalType": "struct FKCController.Game",
          "name": "",
          "type": "tuple"
        }
      ],
      "stateMutability": "view",
      "type": "function"
    },
    {
      "inputs": [
        {
          "internalType": "contract IFKCGame",
          "name": "_gameState",
          "type": "address"
        }
      ],
      "name": "configure",
      "outputs": [],
      "stateMutability": "nonpayable",
      "type": "function"
    },
    {
      "inputs": [
        {
          "internalType": "bool",
          "name": "isBlack",
          "type": "bool"
        }
      ],
      "name": "register",
      "outputs": [],
      "stateMutability": "nonpayable",
      "type": "function"
    },
    {
      "inputs": [
        {
          "internalType": "uint256",
          "name": "step",
          "type": "uint256"
        }
      ],
      "name": "proposeResign",
      "outputs": [],
      "stateMutability": "nonpayable",
      "type": "function"
    },
    {
      "inputs": [
        {
          "internalType": "bytes4",
          "name": "move",
          "type": "bytes4"
        },
        {
          "internalType": "uint256",
          "name": "step",
          "type": "uint256"
        }
      ],
      "name": "requestMove",
      "outputs": [],
      "stateMutability": "nonpayable",
      "type": "function"
    },
    {
      "inputs": [],
      "name": "findPopularMove",
      "outputs": [
        {
          "internalType": "bytes4",
          "name": "move",
          "type": "bytes4"
        },
        {
          "internalType": "uint256",
          "name": "total",
          "type": "uint256"
        }
      ],
      "stateMutability": "view",
      "type": "function"
    },
    {
      "inputs": [
        {
          "internalType": "address",
          "name": "operator",
          "type": "address"
        },
        {
          "internalType": "address",
          "name": "from",
          "type": "address"
        },
        {
          "internalType": "uint256",
          "name": "tokenId",
          "type": "uint256"
        },
        {
          "internalType": "bytes",
          "name": "data",
          "type": "bytes"
        }
      ],
      "name": "onERC721Received",
      "outputs": [
        {
          "internalType": "bytes4",
          "name": "",
          "type": "bytes4"
        }
      ],
      "stateMutability": "view",
      "type": "function"
    },
    {
      "inputs": [],
      "name": "canMoveNext",
      "outputs": [
        {
          "internalType": "bytes4",
          "name": "move",
          "type": "bytes4"
        },
        {
          "internalType": "uint256",
          "name": "total",
          "type": "uint256"
        }
      ],
      "stateMutability": "view",
      "type": "function"
    },
    {
      "inputs": [
        {
          "internalType": "string",
          "name": "nextState",
          "type": "string"
        },
        {
          "internalType": "uint8",
          "name": "result",
          "type": "uint8"
        }
      ],
      "name": "makeNextMove",
      "outputs": [],
      "stateMutability": "nonpayable",
      "type": "function"
    }
  ],
  "bytecode": "0x60806040523480156200001157600080fd5b5062000032620000266200003860201b60201c565b6200004060201b60201c565b62000142565b600033905090565b600160006101000a81549073ffffffffffffffffffffffffffffffffffffffff02191690556200007b816200007e60201b6200199d1760201c565b50565b60008060009054906101000a900473ffffffffffffffffffffffffffffffffffffffff169050816000806101000a81548173ffffffffffffffffffffffffffffffffffffffff021916908373ffffffffffffffffffffffffffffffffffffffff1602179055508173ffffffffffffffffffffffffffffffffffffffff168173ffffffffffffffffffffffffffffffffffffffff167f8be0079c531659141344cd1fd0a4f28419497f9722a3daafe3b4186f6b6457e060405160405180910390a35050565b613a5880620001526000396000f3fe608060405234801561001057600080fd5b50600436106101cf5760003560e01c806379ba509711610104578063cb2a0869116100a2578063e536ae5a11610071578063e536ae5a146104f2578063f2fde38b14610522578063f83fd8051461053e578063fd5a088b1461055c576101cf565b8063cb2a08691461047c578063d1f9c24d1461049a578063df216c45146104b8578063e30c3978146104d4576101cf565b80638da5cb5b116100de5780638da5cb5b14610408578063968d901b14610426578063b2d9c2ed14610444578063be12314514610460576101cf565b806379ba5097146103c2578063836c081d146103cc57806389b9e05b146103ea576101cf565b80634da23b1311610171578063619d36ef1161014b578063619d36ef1461036257806363c18dfe14610380578063715018a61461039c57806375cb2672146103a6576101cf565b80634da23b13146102f65780634de34bdc1461032657806356190e4d14610344576101cf565b8063191de705116101ad578063191de705146102585780633b7732c914610277578063400494bf146102a7578063444aa442146102d7576101cf565b806302a96e47146101d4578063117a5b90146101f2578063150b7a0214610228575b600080fd5b6101dc61057a565b6040516101e99190612362565b60405180910390f35b61020c600480360381019061020791906123bd565b610580565b60405161021f9796959493929190612405565b60405180910390f35b610242600480360381019061023d9190612618565b6105df565b60405161024f91906126d6565b60405180910390f35b610260610683565b60405161026e9291906126f1565b60405180910390f35b610291600480360381019061028c919061271a565b610841565b60405161029e9190612362565b60405180910390f35b6102c160048036038101906102bc9190612773565b610859565b6040516102ce9190612362565b60405180910390f35b6102df610871565b6040516102ed9291906126f1565b60405180910390f35b610310600480360381019061030b919061271a565b610a2a565b60405161031d9190612362565b60405180910390f35b61032e610a42565b60405161033b91906127bc565b60405180910390f35b61034c610a47565b60405161035991906127bc565b60405180910390f35b61036a610a4c565b60405161037791906127bc565b60405180910390f35b61039a600480360381019061039591906127d7565b610a51565b005b6103a4610d9c565b005b6103c060048036038101906103bb9190612855565b610ddf565b005b6103ca610ec4565b005b6103d4610f51565b6040516103e19190612362565b60405180910390f35b6103f2610f57565b6040516103ff91906127bc565b60405180910390f35b610410610f5c565b60405161041d9190612891565b60405180910390f35b61042e610f85565b60405161043b9190612a38565b60405180910390f35b61045e600480360381019061045991906123bd565b6110bf565b005b61047a60048036038101906104759190612a86565b6112bb565b005b610484611561565b60405161049191906127bc565b60405180910390f35b6104a2611566565b6040516104af9190612b12565b60405180910390f35b6104d260048036038101906104cd9190612bfa565b61158c565b005b6104dc6117f9565b6040516104e99190612891565b60405180910390f35b61050c6004803603810190610507919061271a565b611823565b6040516105199190612362565b60405180910390f35b61053c6004803603810190610537919061271a565b61183b565b005b6105466118e8565b6040516105539190612e49565b60405180910390f35b610564611998565b60405161057191906127bc565b60405180910390f35b61025881565b6002818154811061059057600080fd5b90600052602060002090600802016000915090508060000154908060010154908060020160009054906101000a900460ff16908060030154908060050154908060060154908060070154905087565b6000600360009054906101000a900473ffffffffffffffffffffffffffffffffffffffff1673ffffffffffffffffffffffffffffffffffffffff163373ffffffffffffffffffffffffffffffffffffffff1614610671576040517f08c379a000000000000000000000000000000000000000000000000000000000815260040161066890612ec8565b60405180910390fd5b63150b7a0260e01b9050949350505050565b6000806000600260016004546106999190612f17565b815481106106aa576106a9612f4b565b5b906000526020600020906008020190506106c2610871565b8093508194505050428160010154116106db575061083d565b6000600360009054906101000a900473ffffffffffffffffffffffffffffffffffffffff1673ffffffffffffffffffffffffffffffffffffffff1663ffde0c746004546040518263ffffffff1660e01b815260040161073a9190612362565b600060405180830381865afa158015610757573d6000803e3d6000fd5b505050506040513d6000823e3d601f19601f8201168201806040525081019061078091906132e3565b90508160020160009054906101000a900460ff16156107ed576002670de0b6b3a76400008260200151516107b4919061332c565b6107be91906133b5565b670de0b6b3a7640000846107d2919061332c565b116107df576000806107e2565b83835b93509350505061083d565b6002670de0b6b3a7640000826000015151610808919061332c565b61081291906133b5565b670de0b6b3a764000084610826919061332c565b1161083357600080610836565b83835b9350935050505b9091565b60056020528060005260406000206000915090505481565b60086020528060005260406000206000915090505481565b6000806000600260016004546108879190612f17565b8154811061089857610897612f4b565b5b9060005260206000209060080201905060005b8160040180549050811015610a245782600860008460040184815481106108d5576108d4612f4b565b5b90600052602060002090600891828204019190066004029054906101000a900460e01b7bffffffffffffffffffffffffffffffffffffffffffffffffffffffff19167bffffffffffffffffffffffffffffffffffffffffffffffffffffffff19168152602001908152602001600020541115610a135781600401818154811061096157610960612f4b565b5b90600052602060002090600891828204019190066004029054906101000a900460e01b9350600860008360040183815481106109a05761099f612f4b565b5b90600052602060002090600891828204019190066004029054906101000a900460e01b7bffffffffffffffffffffffffffffffffffffffffffffffffffffffff19167bffffffffffffffffffffffffffffffffffffffffffffffffffffffff191681526020019081526020016000205492505b80610a1d906133e6565b90506108ab565b50509091565b60066020528060005260406000206000915090505481565b600181565b600681565b600381565b600060026001600454610a649190612f17565b81548110610a7557610a74612f4b565b5b906000526020600020906008020190508060020160009054906101000a900460ff1615610b26578060000154600760003373ffffffffffffffffffffffffffffffffffffffff1673ffffffffffffffffffffffffffffffffffffffff1681526020019081526020016000205414610b21576040517f08c379a0000000000000000000000000000000000000000000000000000000008152600401610b18906134a0565b60405180910390fd5b610bac565b8060000154600660003373ffffffffffffffffffffffffffffffffffffffff1673ffffffffffffffffffffffffffffffffffffffff1681526020019081526020016000205414610bab576040517f08c379a0000000000000000000000000000000000000000000000000000000008152600401610ba290613532565b60405180910390fd5b5b600060026001600454610bbf9190612f17565b81548110610bd057610bcf612f4b565b5b9060005260206000209060080201905080600701548314610c26576040517f08c379a0000000000000000000000000000000000000000000000000000000008152600401610c1d9061359e565b60405180910390fd5b610c2f83611a61565b600060086000867bffffffffffffffffffffffffffffffffffffffffffffffffffffffff19167bffffffffffffffffffffffffffffffffffffffffffffffffffffffff191681526020019081526020016000205403610cd657806004018490806001815401808255809150506001900390600052602060002090600891828204019190066004029091909190916101000a81548163ffffffff021916908360e01c02179055505b600160086000867bffffffffffffffffffffffffffffffffffffffffffffffffffffffff19167bffffffffffffffffffffffffffffffffffffffffffffffffffffffff191681526020019081526020016000206000828254610d3891906135be565b925050819055506001816003016000828254610d5491906135be565b925050819055507f6069b26af7e9fdbabcd83678ce97dea6bc5e6c0d7d632e776d5ed566e3dae6b1338585604051610d8e93929190613614565b60405180910390a150505050565b610da4611b5d565b6040517f08c379a0000000000000000000000000000000000000000000000000000000008152600401610dd690613697565b60405180910390fd5b610de7611b5d565b600073ffffffffffffffffffffffffffffffffffffffff16600360009054906101000a900473ffffffffffffffffffffffffffffffffffffffff1673ffffffffffffffffffffffffffffffffffffffff1614610e78576040517f08c379a0000000000000000000000000000000000000000000000000000000008152600401610e6f90613703565b60405180910390fd5b80600360006101000a81548173ffffffffffffffffffffffffffffffffffffffff021916908373ffffffffffffffffffffffffffffffffffffffff160217905550610ec1611bdb565b50565b6000610ece611dff565b90508073ffffffffffffffffffffffffffffffffffffffff16610eef6117f9565b73ffffffffffffffffffffffffffffffffffffffff1614610f45576040517f08c379a0000000000000000000000000000000000000000000000000000000008152600401610f3c90613795565b60405180910390fd5b610f4e81611e07565b50565b60045481565b600481565b60008060009054906101000a900473ffffffffffffffffffffffffffffffffffffffff16905090565b610f8d6121d5565b60026001600454610f9e9190612f17565b81548110610faf57610fae612f4b565b5b90600052602060002090600802016040518061010001604052908160008201548152602001600182015481526020016002820160009054906101000a900460ff16151515158152602001600382015481526020016004820180548060200260200160405190810160405280929190818152602001828054801561109357602002820191906000526020600020906000905b82829054906101000a900460e01b7bffffffffffffffffffffffffffffffffffffffffffffffffffffffff1916815260200190600401906020826003010492830192600103820291508084116110405790505b505050505081526020016005820154815260200160068201548152602001600782015481525050905090565b6000600260016004546110d29190612f17565b815481106110e3576110e2612f4b565b5b906000526020600020906008020190508060020160009054906101000a900460ff1615611194578060000154600760003373ffffffffffffffffffffffffffffffffffffffff1673ffffffffffffffffffffffffffffffffffffffff168152602001908152602001600020541461118f576040517f08c379a0000000000000000000000000000000000000000000000000000000008152600401611186906134a0565b60405180910390fd5b61121a565b8060000154600660003373ffffffffffffffffffffffffffffffffffffffff1673ffffffffffffffffffffffffffffffffffffffff1681526020019081526020016000205414611219576040517f08c379a000000000000000000000000000000000000000000000000000000000815260040161121090613532565b60405180910390fd5b5b60006002600160045461122d9190612f17565b8154811061123e5761123d612f4b565b5b9060005260206000209060080201905080600701548314611294576040517f08c379a000000000000000000000000000000000000000000000000000000000815260040161128b9061359e565b60405180910390fd5b61129d83611a61565b600181600501546112ae91906135be565b8160050181905550505050565b6000600260016004546112ce9190612f17565b815481106112df576112de612f4b565b5b906000526020600020906008020190508060000154600760003373ffffffffffffffffffffffffffffffffffffffff1673ffffffffffffffffffffffffffffffffffffffff1681526020019081526020016000205403611374576040517f08c379a000000000000000000000000000000000000000000000000000000000815260040161136b906134a0565b60405180910390fd5b8060000154600660003373ffffffffffffffffffffffffffffffffffffffff1673ffffffffffffffffffffffffffffffffffffffff16815260200190815260200160002054036113f9576040517f08c379a00000000000000000000000000000000000000000000000000000000081526004016113f090613532565b60405180910390fd5b811561144a57600454600760003373ffffffffffffffffffffffffffffffffffffffff1673ffffffffffffffffffffffffffffffffffffffff16815260200190815260200160002081905550611491565b600454600660003373ffffffffffffffffffffffffffffffffffffffff1673ffffffffffffffffffffffffffffffffffffffff168152602001908152602001600020819055505b600360009054906101000a900473ffffffffffffffffffffffffffffffffffffffff1673ffffffffffffffffffffffffffffffffffffffff1663ea38bf5e33600454856040518463ffffffff1660e01b81526004016114f2939291906137b5565b600060405180830381600087803b15801561150c57600080fd5b505af1158015611520573d6000803e3d6000fd5b505050507f28a24a60e275c9be5babc23ecefd3240b1fcd56ef4d3fe4818437200b55ae5ff33836040516115559291906137ec565b60405180910390a15050565b600281565b600360009054906101000a900473ffffffffffffffffffffffffffffffffffffffff1681565b611594611b5d565b60008061159f610683565b9150915060006115ad611e38565b905060008211806115c1575060008160ff16115b611600576040517f08c379a00000000000000000000000000000000000000000000000000000000081526004016115f790613861565b60405180910390fd5b7f54cbed56d463892e354712f48a76c96cb1b53352864eb8f5594cad3efbd450028360405161162f91906126d6565b60405180910390a161163f611fea565b600360009054906101000a900473ffffffffffffffffffffffffffffffffffffffff1673ffffffffffffffffffffffffffffffffffffffff16639d82bd4360045487866040518463ffffffff1660e01b81526004016116a0939291906138ba565b600060405180830381600087803b1580156116ba57600080fd5b505af11580156116ce573d6000803e3d6000fd5b5050505060008460ff1611806116e7575060008160ff16115b156117e957600360009054906101000a900473ffffffffffffffffffffffffffffffffffffffff1673ffffffffffffffffffffffffffffffffffffffff1663c544953160045460008460ff161161173e5786611740565b835b6040518363ffffffff1660e01b815260040161175d9291906138f8565b600060405180830381600087803b15801561177757600080fd5b505af115801561178b573d6000803e3d6000fd5b50505050611797611bdb565b7f260525a806e0714f16de6fea0094e17a171fae8df7fbf6b271e695a7c709fd6260045460008360ff16116117cc57856117ce565b825b6040516117dc9291906138f8565b60405180910390a16117f2565b6117f16120e6565b5b5050505050565b6000600160009054906101000a900473ffffffffffffffffffffffffffffffffffffffff16905090565b60076020528060005260406000206000915090505481565b611843611b5d565b80600160006101000a81548173ffffffffffffffffffffffffffffffffffffffff021916908373ffffffffffffffffffffffffffffffffffffffff1602179055508073ffffffffffffffffffffffffffffffffffffffff166118a3610f5c565b73ffffffffffffffffffffffffffffffffffffffff167f38d16b8cac22d99fc7c124b9cd0de2d3fa1faef420bfe791d8c362d765e2270060405160405180910390a350565b6118f061221c565b600360009054906101000a900473ffffffffffffffffffffffffffffffffffffffff1673ffffffffffffffffffffffffffffffffffffffff1663ffde0c746004546040518263ffffffff1660e01b815260040161194d9190612362565b600060405180830381865afa15801561196a573d6000803e3d6000fd5b505050506040513d6000823e3d601f19601f8201168201806040525081019061199391906132e3565b905090565b600581565b60008060009054906101000a900473ffffffffffffffffffffffffffffffffffffffff169050816000806101000a81548173ffffffffffffffffffffffffffffffffffffffff021916908373ffffffffffffffffffffffffffffffffffffffff1602179055508173ffffffffffffffffffffffffffffffffffffffff168173ffffffffffffffffffffffffffffffffffffffff167f8be0079c531659141344cd1fd0a4f28419497f9722a3daafe3b4186f6b6457e060405160405180910390a35050565b6004546101f4611a71919061332c565b81611a7c91906135be565b600560003373ffffffffffffffffffffffffffffffffffffffff1673ffffffffffffffffffffffffffffffffffffffff1681526020019081526020016000205410611afc576040517f08c379a0000000000000000000000000000000000000000000000000000000008152600401611af39061396d565b60405180910390fd5b6004546101f4611b0c919061332c565b81611b1791906135be565b600560003373ffffffffffffffffffffffffffffffffffffffff1673ffffffffffffffffffffffffffffffffffffffff1681526020019081526020016000208190555050565b611b65611dff565b73ffffffffffffffffffffffffffffffffffffffff16611b83610f5c565b73ffffffffffffffffffffffffffffffffffffffff1614611bd9576040517f08c379a0000000000000000000000000000000000000000000000000000000008152600401611bd0906139d9565b60405180910390fd5b565b600160046000828254611bee91906135be565b925050819055506002604051806101000160405280600454815260200161025842611c1991906135be565b81526020016000151581526020016103e88152602001600067ffffffffffffffff811115611c4a57611c496124ed565b5b604051908082528060200260200182016040528015611c785781602001602082028036833780820191505090505b508152602001600081526020016000815260200160018152509080600181540180825580915050600190039060005260206000209060080201600090919091909150600082015181600001556020820151816001015560408201518160020160006101000a81548160ff021916908315150217905550606082015181600301556080820151816004019080519060200190611d14929190612257565b5060a0820151816005015560c0820151816006015560e082015181600701555050600360009054906101000a900473ffffffffffffffffffffffffffffffffffffffff1673ffffffffffffffffffffffffffffffffffffffff1663d9b92ec76004546040518263ffffffff1660e01b8152600401611d929190612362565b600060405180830381600087803b158015611dac57600080fd5b505af1158015611dc0573d6000803e3d6000fd5b505050507f40cd4960d42a9ef161fc5f47c7be8e95bbdf4ef5f7d149743de8787b224fa67c600454604051611df59190612362565b60405180910390a1565b600033905090565b600160006101000a81549073ffffffffffffffffffffffffffffffffffffffff0219169055611e358161199d565b50565b60008060026001600454611e4c9190612f17565b81548110611e5d57611e5c612f4b565b5b906000526020600020906008020190506000816005015403611e83576000915050611fe7565b6000600360009054906101000a900473ffffffffffffffffffffffffffffffffffffffff1673ffffffffffffffffffffffffffffffffffffffff1663ffde0c746004546040518263ffffffff1660e01b8152600401611ee29190612362565b600060405180830381865afa158015611eff573d6000803e3d6000fd5b505050506040513d6000823e3d601f19601f82011682018060405250810190611f2891906132e3565b90508160020160009054906101000a900460ff1615611f96576002670de0b6b3a7640000826020015151611f5c919061332c565b611f6691906133b5565b670de0b6b3a76400008360050154611f7e919061332c565b11611f8a576000611f8d565b60065b92505050611fe7565b6002670de0b6b3a7640000826000015151611fb1919061332c565b611fbb91906133b5565b670de0b6b3a76400008360050154611fd3919061332c565b11611fdf576000611fe2565b60055b925050505b90565b600060026001600454611ffd9190612f17565b8154811061200e5761200d612f4b565b5b9060005260206000209060080201905060005b81600401805490508110156120d25760006008600084600401848154811061204c5761204b612f4b565b5b90600052602060002090600891828204019190066004029054906101000a900460e01b7bffffffffffffffffffffffffffffffffffffffffffffffffffffffff19167bffffffffffffffffffffffffffffffffffffffffffffffffffffffff191681526020019081526020016000208190555080806120ca906133e6565b915050612021565b508060040160006120e39190612304565b50565b6000600260016004546120f99190612f17565b8154811061210a57612109612f4b565b5b90600052602060002090600802019050600181600701600082825461212f91906135be565b925050819055506102584261214491906135be565b8160010181905550600081600501819055508060020160009054906101000a900460ff16158160020160006101000a81548160ff0219169083151502179055507f2660f947c7dae4e9c83614cb7dbdee0c16efc13e15a47d9c9591fe1c9c39b50e8160020160009054906101000a900460ff1682600101546040516121ca9291906139f9565b60405180910390a150565b604051806101000160405280600081526020016000815260200160001515815260200160008152602001606081526020016000815260200160008152602001600081525090565b6040518060c0016040528060608152602001606081526020016060815260200160608152602001600015158152602001600060ff1681525090565b828054828255906000526020600020906007016008900481019282156122f35791602002820160005b838211156122c157835183826101000a81548163ffffffff021916908360e01c02179055509260200192600401602081600301049283019260010302612280565b80156122f15782816101000a81549063ffffffff02191690556004016020816003010492830192600103026122c1565b505b509050612300919061232c565b5090565b508054600082556007016008900490600052602060002090810190612329919061232c565b50565b5b8082111561234557600081600090555060010161232d565b5090565b6000819050919050565b61235c81612349565b82525050565b60006020820190506123776000830184612353565b92915050565b6000604051905090565b600080fd5b600080fd5b61239a81612349565b81146123a557600080fd5b50565b6000813590506123b781612391565b92915050565b6000602082840312156123d3576123d2612387565b5b60006123e1848285016123a8565b91505092915050565b60008115159050919050565b6123ff816123ea565b82525050565b600060e08201905061241a600083018a612353565b6124276020830189612353565b61243460408301886123f6565b6124416060830187612353565b61244e6080830186612353565b61245b60a0830185612353565b61246860c0830184612353565b98975050505050505050565b600073ffffffffffffffffffffffffffffffffffffffff82169050919050565b600061249f82612474565b9050919050565b6124af81612494565b81146124ba57600080fd5b50565b6000813590506124cc816124a6565b92915050565b600080fd5b600080fd5b6000601f19601f8301169050919050565b7f4e487b7100000000000000000000000000000000000000000000000000000000600052604160045260246000fd5b612525826124dc565b810181811067ffffffffffffffff82111715612544576125436124ed565b5b80604052505050565b600061255761237d565b9050612563828261251c565b919050565b600067ffffffffffffffff821115612583576125826124ed565b5b61258c826124dc565b9050602081019050919050565b82818337600083830152505050565b60006125bb6125b684612568565b61254d565b9050828152602081018484840111156125d7576125d66124d7565b5b6125e2848285612599565b509392505050565b600082601f8301126125ff576125fe6124d2565b5b813561260f8482602086016125a8565b91505092915050565b6000806000806080858703121561263257612631612387565b5b6000612640878288016124bd565b9450506020612651878288016124bd565b9350506040612662878288016123a8565b925050606085013567ffffffffffffffff8111156126835761268261238c565b5b61268f878288016125ea565b91505092959194509250565b60007fffffffff0000000000000000000000000000000000000000000000000000000082169050919050565b6126d08161269b565b82525050565b60006020820190506126eb60008301846126c7565b92915050565b600060408201905061270660008301856126c7565b6127136020830184612353565b9392505050565b6000602082840312156127305761272f612387565b5b600061273e848285016124bd565b91505092915050565b6127508161269b565b811461275b57600080fd5b50565b60008135905061276d81612747565b92915050565b60006020828403121561278957612788612387565b5b60006127978482850161275e565b91505092915050565b600060ff82169050919050565b6127b6816127a0565b82525050565b60006020820190506127d160008301846127ad565b92915050565b600080604083850312156127ee576127ed612387565b5b60006127fc8582860161275e565b925050602061280d858286016123a8565b9150509250929050565b600061282282612494565b9050919050565b61283281612817565b811461283d57600080fd5b50565b60008135905061284f81612829565b92915050565b60006020828403121561286b5761286a612387565b5b600061287984828501612840565b91505092915050565b61288b81612494565b82525050565b60006020820190506128a66000830184612882565b92915050565b6128b581612349565b82525050565b6128c4816123ea565b82525050565b600081519050919050565b600082825260208201905092915050565b6000819050602082019050919050565b6128ff8161269b565b82525050565b600061291183836128f6565b60208301905092915050565b6000602082019050919050565b6000612935826128ca565b61293f81856128d5565b935061294a836128e6565b8060005b8381101561297b5781516129628882612905565b975061296d8361291d565b92505060018101905061294e565b5085935050505092915050565b6000610100830160008301516129a160008601826128ac565b5060208301516129b460208601826128ac565b5060408301516129c760408601826128bb565b5060608301516129da60608601826128ac565b50608083015184820360808601526129f2828261292a565b91505060a0830151612a0760a08601826128ac565b5060c0830151612a1a60c08601826128ac565b5060e0830151612a2d60e08601826128ac565b508091505092915050565b60006020820190508181036000830152612a528184612988565b905092915050565b612a63816123ea565b8114612a6e57600080fd5b50565b600081359050612a8081612a5a565b92915050565b600060208284031215612a9c57612a9b612387565b5b6000612aaa84828501612a71565b91505092915050565b6000819050919050565b6000612ad8612ad3612ace84612474565b612ab3565b612474565b9050919050565b6000612aea82612abd565b9050919050565b6000612afc82612adf565b9050919050565b612b0c81612af1565b82525050565b6000602082019050612b276000830184612b03565b92915050565b600067ffffffffffffffff821115612b4857612b476124ed565b5b612b51826124dc565b9050602081019050919050565b6000612b71612b6c84612b2d565b61254d565b905082815260208101848484011115612b8d57612b8c6124d7565b5b612b98848285612599565b509392505050565b600082601f830112612bb557612bb46124d2565b5b8135612bc5848260208601612b5e565b91505092915050565b612bd7816127a0565b8114612be257600080fd5b50565b600081359050612bf481612bce565b92915050565b60008060408385031215612c1157612c10612387565b5b600083013567ffffffffffffffff811115612c2f57612c2e61238c565b5b612c3b85828601612ba0565b9250506020612c4c85828601612be5565b9150509250929050565b600081519050919050565b600082825260208201905092915050565b6000819050602082019050919050565b612c8b81612494565b82525050565b6000612c9d8383612c82565b60208301905092915050565b6000602082019050919050565b6000612cc182612c56565b612ccb8185612c61565b9350612cd683612c72565b8060005b83811015612d07578151612cee8882612c91565b9750612cf983612ca9565b925050600181019050612cda565b5085935050505092915050565b600081519050919050565b600082825260208201905092915050565b60005b83811015612d4e578082015181840152602081019050612d33565b83811115612d5d576000848401525b50505050565b6000612d6e82612d14565b612d788185612d1f565b9350612d88818560208601612d30565b612d91816124dc565b840191505092915050565b612da5816127a0565b82525050565b600060c0830160008301518482036000860152612dc88282612cb6565b91505060208301518482036020860152612de28282612cb6565b91505060408301518482036040860152612dfc8282612d63565b91505060608301518482036060860152612e16828261292a565b9150506080830151612e2b60808601826128bb565b5060a0830151612e3e60a0860182612d9c565b508091505092915050565b60006020820190508181036000830152612e638184612dab565b905092915050565b600082825260208201905092915050565b7f696e76616c6964206f70657261746f7200000000000000000000000000000000600082015250565b6000612eb2601083612e6b565b9150612ebd82612e7c565b602082019050919050565b60006020820190508181036000830152612ee181612ea5565b9050919050565b7f4e487b7100000000000000000000000000000000000000000000000000000000600052601160045260246000fd5b6000612f2282612349565b9150612f2d83612349565b925082821015612f4057612f3f612ee8565b5b828203905092915050565b7f4e487b7100000000000000000000000000000000000000000000000000000000600052603260045260246000fd5b600080fd5b600080fd5b600067ffffffffffffffff821115612f9f57612f9e6124ed565b5b602082029050602081019050919050565b600080fd5b600081519050612fc4816124a6565b92915050565b6000612fdd612fd884612f84565b61254d565b9050808382526020820190506020840283018581111561300057612fff612fb0565b5b835b8181101561302957806130158882612fb5565b845260208401935050602081019050613002565b5050509392505050565b600082601f830112613048576130476124d2565b5b8151613058848260208601612fca565b91505092915050565b600061307461306f84612b2d565b61254d565b9050828152602081018484840111156130905761308f6124d7565b5b61309b848285612d30565b509392505050565b600082601f8301126130b8576130b76124d2565b5b81516130c8848260208601613061565b91505092915050565b600067ffffffffffffffff8211156130ec576130eb6124ed565b5b602082029050602081019050919050565b60008151905061310c81612747565b92915050565b6000613125613120846130d1565b61254d565b9050808382526020820190506020840283018581111561314857613147612fb0565b5b835b81811015613171578061315d88826130fd565b84526020840193505060208101905061314a565b5050509392505050565b600082601f8301126131905761318f6124d2565b5b81516131a0848260208601613112565b91505092915050565b6000815190506131b881612a5a565b92915050565b6000815190506131cd81612bce565b92915050565b600060c082840312156131e9576131e8612f7a565b5b6131f360c061254d565b9050600082015167ffffffffffffffff81111561321357613212612f7f565b5b61321f84828501613033565b600083015250602082015167ffffffffffffffff81111561324357613242612f7f565b5b61324f84828501613033565b602083015250604082015167ffffffffffffffff81111561327357613272612f7f565b5b61327f848285016130a3565b604083015250606082015167ffffffffffffffff8111156132a3576132a2612f7f565b5b6132af8482850161317b565b60608301525060806132c3848285016131a9565b60808301525060a06132d7848285016131be565b60a08301525092915050565b6000602082840312156132f9576132f8612387565b5b600082015167ffffffffffffffff8111156133175761331661238c565b5b613323848285016131d3565b91505092915050565b600061333782612349565b915061334283612349565b9250817fffffffffffffffffffffffffffffffffffffffffffffffffffffffffffffffff048311821515161561337b5761337a612ee8565b5b828202905092915050565b7f4e487b7100000000000000000000000000000000000000000000000000000000600052601260045260246000fd5b60006133c082612349565b91506133cb83612349565b9250826133db576133da613386565b5b828204905092915050565b60006133f182612349565b91507fffffffffffffffffffffffffffffffffffffffffffffffffffffffffffffffff820361342357613422612ee8565b5b600182019050919050565b7f75736572207265676973746572656420617320626c61636b20706c617965722060008201527f666f7220726563656e742067616d650000000000000000000000000000000000602082015250565b600061348a602f83612e6b565b91506134958261342e565b604082019050919050565b600060208201905081810360008301526134b98161347d565b9050919050565b7f75736572207265676973746572656420617320776869746520706c617965722060008201527f666f7220726563656e742067616d650000000000000000000000000000000000602082015250565b600061351c602f83612e6b565b9150613527826134c0565b604082019050919050565b6000602082019050818103600083015261354b8161350f565b9050919050565b7f6d6f7665206d61646520666f72207374657020696e76616c6964000000000000600082015250565b6000613588601a83612e6b565b915061359382613552565b602082019050919050565b600060208201905081810360008301526135b78161357b565b9050919050565b60006135c982612349565b91506135d483612349565b9250827fffffffffffffffffffffffffffffffffffffffffffffffffffffffffffffffff0382111561360957613608612ee8565b5b828201905092915050565b60006060820190506136296000830186612882565b61363660208301856126c7565b6136436040830184612353565b949350505050565b7f63616e6e6f742072656e6f756e6365206f776e65727368697000000000000000600082015250565b6000613681601983612e6b565b915061368c8261364b565b602082019050919050565b600060208201905081810360008301526136b081613674565b9050919050565b7f63616e6e6f7420696e697469616c697365206d6f7265207468616e206f6e6365600082015250565b60006136ed602083612e6b565b91506136f8826136b7565b602082019050919050565b6000602082019050818103600083015261371c816136e0565b9050919050565b7f4f776e61626c6532537465703a2063616c6c6572206973206e6f74207468652060008201527f6e6577206f776e65720000000000000000000000000000000000000000000000602082015250565b600061377f602983612e6b565b915061378a82613723565b604082019050919050565b600060208201905081810360008301526137ae81613772565b9050919050565b60006060820190506137ca6000830186612882565b6137d76020830185612353565b6137e460408301846123f6565b949350505050565b60006040820190506138016000830185612882565b61380e60208301846123f6565b9392505050565b7f696e76616c6964206e6f206d6f76657320666f756e6400000000000000000000600082015250565b600061384b601683612e6b565b915061385682613815565b602082019050919050565b6000602082019050818103600083015261387a8161383e565b9050919050565b600061388c82612d14565b6138968185612e6b565b93506138a6818560208601612d30565b6138af816124dc565b840191505092915050565b60006060820190506138cf6000830186612353565b81810360208301526138e18185613881565b90506138f060408301846126c7565b949350505050565b600060408201905061390d6000830185612353565b61391a60208301846127ad565b9392505050565b7f6d6f766520616c7265616479206d616465000000000000000000000000000000600082015250565b6000613957601183612e6b565b915061396282613921565b602082019050919050565b600060208201905081810360008301526139868161394a565b9050919050565b7f4f776e61626c653a2063616c6c6572206973206e6f7420746865206f776e6572600082015250565b60006139c3602083612e6b565b91506139ce8261398d565b602082019050919050565b600060208201905081810360008301526139f2816139b6565b9050919050565b6000604082019050613a0e60008301856123f6565b613a1b6020830184612353565b939250505056fea26469706673582212206e9db2869ee98edbd57785f8d56902f2076ab03bdab842547facbcdcab03531664736f6c634300080d0033",
  "immutableReferences": {},
  "source": "// SPDX-License-Identifier: MIT\n\npragma solidity ^0.8.13;\n\nimport \"./interfaces/IFKCGame.sol\";\nimport \"@openzeppelin/contracts/token/ERC721/IERC721Receiver.sol\";\nimport \"@openzeppelin/contracts/access/Ownable2Step.sol\";\n\n/**\n * @title FKCController\n * @notice This contract handles the logic and control of a game using tokens.\n * @dev TODO: Integrate chess verification on-chain.\n */\n\ncontract FKCController is IERC721Receiver, Ownable2Step {\n    struct Game {\n        uint256 gameId;\n        uint256 nextPlayTimer;\n        bool isBlackToPlay;\n        uint256 totalTokens; // number of tokens collected for this game round\n        bytes4[] proposedMoves;\n        uint256 proposeResign; // number of users proposing resign for current play\n        uint256 proposeDraw;\n        uint256 currentStep; // current move in the game\n    }\n\n    Game[] public games;\n    IFKCGame public gameState;\n    uint256 public currentToken;\n\n    uint8 public constant WHITE_WIN = 1;\n    uint8 public constant BLACK_WIN = 2;\n    uint8 public constant DRAW = 3;\n    uint8 public constant STALEMATE = 4;\n    uint8 public constant WHITE_RESIGN = 5;\n    uint8 public constant BLACK_RESIGN = 6;\n    uint256 public constant MAX_TIME_PER_MOVE = 10 minutes;\n\n    mapping(address => uint256) public playerMovesMade; // a record of a move made by the user and the steps made\n    mapping(address => uint256) public registeredWhitePlayer;\n    mapping(address => uint256) public registeredBlackPlayer;\n    mapping(bytes4 => uint256) public movesRequest;\n\n    event NewGameCreated(uint256 currentToken);\n    event NextMoveCreated(bool isBlack, uint256 expirationTimer);\n    event UserRegistered(address userAddress, bool isBlack);\n    event MoveProposed(address player, bytes4 move, uint256 currentStep);\n    event MoveMade(bytes4 move);\n    event GameCompleted(uint256 tokenId, uint8 result);\n\n    constructor() {}\n\n    modifier validPlayer() {\n        Game storage currentGame = games[currentToken - 1];\n\n        if (currentGame.isBlackToPlay) {\n            require(\n                registeredBlackPlayer[msg.sender] == currentGame.gameId,\n                \"user registered as black player for recent game\"\n            );\n        } else {\n            require(\n                registeredWhitePlayer[msg.sender] == currentGame.gameId,\n                \"user registered as white player for recent game\"\n            );\n        }\n        _;\n    }\n\n    // Overridden renounceOwnership function to do nothing (intentional design choice)\n    function renounceOwnership() public virtual override onlyOwner {\n        // do nothing\n        revert(\"cannot renounce ownership\");\n    }\n\n    function getCurrentGameState() external view returns (IFKCGame.GameState memory) {\n        return gameState.getGameState(currentToken);\n    }\n\n    function getCurrentGame() external view returns (Game memory) {\n        return games[currentToken - 1];\n    }\n\n    /**\n     * @notice Configures the game state and initializes the first game.\n     * @param _gameState The game state contract to be set.\n     */\n    function configure(IFKCGame _gameState) public onlyOwner {\n        require(\n            address(gameState) == address(0),\n            \"cannot initialise more than once\"\n        );\n        gameState = _gameState;\n        createNewGame();\n    }\n\n    /**\n     * @dev Creates a new game round.\n     */\n    function createNewGame() internal {\n        currentToken += 1;\n        games.push(\n            Game(\n                currentToken,\n                block.timestamp + MAX_TIME_PER_MOVE,\n                false,\n                1000,\n                new bytes4[](0),\n                0,\n                0,\n                1\n            )\n        );\n        // mint next game!\n        gameState.mintNextGame(currentToken);\n        emit NewGameCreated(currentToken);\n    }\n\n    /**\n     * @dev Resets the proposed moves and their requests.\n     */\n    function reset() private {\n        Game storage currentGame = games[currentToken - 1];\n        for (uint256 i = 0; i < currentGame.proposedMoves.length; i++) {\n            movesRequest[currentGame.proposedMoves[i]] = 0;\n        }\n        delete currentGame.proposedMoves;\n    }\n\n    /**\n     * @dev Sets the conditions for the next move.\n     */\n    function nextPlay() private {\n        Game storage currentGame = games[currentToken - 1];\n\n        currentGame.currentStep += 1;\n        currentGame.nextPlayTimer = block.timestamp + MAX_TIME_PER_MOVE;\n        currentGame.proposeResign = 0;\n        currentGame.isBlackToPlay = !currentGame.isBlackToPlay;\n\n        emit NextMoveCreated(\n            currentGame.isBlackToPlay,\n            currentGame.nextPlayTimer\n        );\n    }\n\n    /**\n     * @notice Registers a user as a white or black player.\n     * @param isBlack True if registering as a black player, false for white.\n     */\n    function register(bool isBlack) external {\n        Game storage currentGame = games[currentToken - 1];\n\n        require(\n            registeredBlackPlayer[msg.sender] != currentGame.gameId,\n            \"user registered as black player for recent game\"\n        );\n        require(\n            registeredWhitePlayer[msg.sender] != currentGame.gameId,\n            \"user registered as white player for recent game\"\n        );\n\n        if (isBlack) {\n            registeredBlackPlayer[msg.sender] = currentToken;\n        } else {\n            registeredWhitePlayer[msg.sender] = currentToken;\n        }\n        gameState.addUserToGame(msg.sender, currentToken, isBlack);\n\n        emit UserRegistered(msg.sender, isBlack);\n    }\n\n    function checkAndUpdateMoveMade(uint256 step) private {\n        require(playerMovesMade[msg.sender] < step + (500 * currentToken), \"move already made\"); // max 500 moves per game\n        playerMovesMade[msg.sender] = step + (500 * currentToken);\n    }\n\n    /**\n     * @notice Allows a player to propose resignation.\n     * @param step The current game step.\n     */\n    function proposeResign(uint256 step) external validPlayer {\n        Game storage current = games[currentToken - 1];\n        require(step == current.currentStep, \"move made for step invalid\");\n        checkAndUpdateMoveMade(step);\n        current.proposeResign = current.proposeResign + 1;        \n    }\n\n    /**\n     * @notice Allows a player to request a move.\n     * @param move The move being proposed.\n     * @param step The current game step.\n     */\n    function requestMove(bytes4 move, uint256 step) external validPlayer {\n        Game storage current = games[currentToken - 1];\n        require(step == current.currentStep, \"move made for step invalid\");\n        checkAndUpdateMoveMade(step);\n        \n        if (movesRequest[move] == 0) {\n            current.proposedMoves.push(move);\n        }\n        movesRequest[move] += 1;\n        current.totalTokens += 1;\n\n        // Move Requested\n        emit MoveProposed(msg.sender, move, step);\n    }\n\n    /**\n     * @notice Finds the most popular move proposed by players.\n     * @return move The most popular move.\n     * @return total The total count of votes for that move.\n     */\n    function findPopularMove()\n        public\n        view\n        returns (bytes4 move, uint256 total)\n    {\n        Game storage current = games[currentToken - 1];\n\n        for (uint256 i = 0; i < current.proposedMoves.length; ++i) {\n            if (movesRequest[current.proposedMoves[i]] > total) {\n                move = current.proposedMoves[i];\n                total = movesRequest[current.proposedMoves[i]];\n            }\n        }\n    }\n\n    function onERC721Received(\n        address operator,\n        address from,\n        uint256 tokenId,\n        bytes memory data\n    ) external view returns (bytes4) {\n        require(msg.sender == address(gameState), \"invalid operator\");\n        return IERC721Receiver.onERC721Received.selector;\n    }\n\n    function canMoveNext() public view returns (bytes4 move, uint256 total) {\n        Game storage current = games[currentToken - 1];\n        (move, total) = findPopularMove();\n\n        if (current.nextPlayTimer <= block.timestamp) {\n            return (move, total);\n        }\n        IFKCGame.GameState memory state = gameState.getGameState(currentToken);\n\n        if (current.isBlackToPlay) {\n            return\n                total * 1 ether > (state.blackPlayers.length * 1 ether) / 2\n                    ? (move, total)\n                    : (bytes4(\"\"), 0);\n        }\n        return\n            total * 1 ether > (state.whitePlayers.length * 1 ether) / 2\n                ? (move, total)\n                : (bytes4(\"\"), 0);\n    }\n\n    /**\n     * @notice Compute whether current move is resignation\n     */\n    function isResigned() internal view returns (uint8) {\n        Game storage current = games[currentToken - 1];\n        if (current.proposeResign == 0) {\n            return 0;\n        }\n        IFKCGame.GameState memory state = gameState.getGameState(currentToken);\n        if (current.isBlackToPlay) {\n            return (current.proposeResign * 1 ether > (state.blackPlayers.length * 1 ether) / 2) ? BLACK_RESIGN : 0;\n        }\n        else {\n            return (current.proposeResign * 1 ether > (state.whitePlayers.length * 1 ether) / 2) ? WHITE_RESIGN : 0;\n        }\n    }\n\n    /**\n     * @notice Computes and finalizes the next game move.\n     * @param nextState - state to persist to the smart contract\n     * @param result - result of the game\n     */\n    function makeNextMove(\n        string memory nextState,\n        uint8 result\n    ) external onlyOwner {\n        // find the move to be made\n        (bytes4 move, uint256 total) = canMoveNext();\n        uint8 resigned = isResigned();\n\n        require(total > 0 || resigned > 0, \"invalid no moves found\");\n\n        emit MoveMade(move);\n        reset();\n        gameState.updateGameState(currentToken, nextState, move);\n\n        if (result > 0 || resigned > 0) {\n            gameState.endGame(currentToken, resigned > 0 ? resigned : result);\n            createNewGame();\n            emit GameCompleted(currentToken, resigned > 0 ? resigned : result);\n        } else {\n            nextPlay();\n        }\n    }\n}\n",
  "sourcePath": "/Users/sprect8/development/hackathon/navh/kingscounsel/kc-blockchain/contracts/FKCController.sol",
  "compiler": {
    "name": "solc",
    "version": "0.8.13+commit.abaa5c0e.Emscripten.clang"
  },
  "schemaVersion": "3.4.15",
  "updatedAt": "2023-08-21T16:09:22.942Z",
  "devdoc": {
    "details": "TODO: Integrate chess verification on-chain.",
    "kind": "dev",
    "methods": {
      "acceptOwnership()": {
        "details": "The new owner accepts the ownership transfer."
      },
      "configure(address)": {
        "params": {
          "_gameState": "The game state contract to be set."
        }
      },
      "findPopularMove()": {
        "returns": {
          "move": "The most popular move.",
          "total": "The total count of votes for that move."
        }
      },
      "makeNextMove(string,uint8)": {
        "params": {
          "nextState": "- state to persist to the smart contract",
          "result": "- result of the game"
        }
      },
      "onERC721Received(address,address,uint256,bytes)": {
        "details": "Whenever an {IERC721} `tokenId` token is transferred to this contract via {IERC721-safeTransferFrom} by `operator` from `from`, this function is called. It must return its Solidity selector to confirm the token transfer. If any other value is returned or the interface is not implemented by the recipient, the transfer will be reverted. The selector can be obtained in Solidity with `IERC721Receiver.onERC721Received.selector`."
      },
      "owner()": {
        "details": "Returns the address of the current owner."
      },
      "pendingOwner()": {
        "details": "Returns the address of the pending owner."
      },
      "proposeResign(uint256)": {
        "params": {
          "step": "The current game step."
        }
      },
      "register(bool)": {
        "params": {
          "isBlack": "True if registering as a black player, false for white."
        }
      },
      "renounceOwnership()": {
        "details": "Leaves the contract without owner. It will not be possible to call `onlyOwner` functions. Can only be called by the current owner. NOTE: Renouncing ownership will leave the contract without an owner, thereby disabling any functionality that is only available to the owner."
      },
      "requestMove(bytes4,uint256)": {
        "params": {
          "move": "The move being proposed.",
          "step": "The current game step."
        }
      },
      "transferOwnership(address)": {
        "details": "Starts the ownership transfer of the contract to a new account. Replaces the pending transfer if there is one. Can only be called by the current owner."
      }
    },
    "title": "FKCController",
    "version": 1
  },
  "userdoc": {
    "kind": "user",
    "methods": {
      "configure(address)": {
        "notice": "Configures the game state and initializes the first game."
      },
      "findPopularMove()": {
        "notice": "Finds the most popular move proposed by players."
      },
      "makeNextMove(string,uint8)": {
        "notice": "Computes and finalizes the next game move."
      },
      "proposeResign(uint256)": {
        "notice": "Allows a player to propose resignation."
      },
      "register(bool)": {
        "notice": "Registers a user as a white or black player."
      },
      "requestMove(bytes4,uint256)": {
        "notice": "Allows a player to request a move."
      }
    },
    "notice": "This contract handles the logic and control of a game using tokens.",
    "version": 1
  }
}