{
  "contractName": "FKCController",
  "abi": [
    {
      "inputs": [],
      "stateMutability": "nonpayable",
      "type": "constructor"
    },
    {
      "anonymous": false,
      "inputs": [
        {
          "indexed": false,
          "internalType": "uint256",
          "name": "tokenId",
          "type": "uint256"
        },
        {
          "indexed": false,
          "internalType": "uint8",
          "name": "result",
          "type": "uint8"
        }
      ],
      "name": "GameCompleted",
      "type": "event"
    },
    {
      "anonymous": false,
      "inputs": [
        {
          "indexed": false,
          "internalType": "bytes4",
          "name": "move",
          "type": "bytes4"
        }
      ],
      "name": "MoveMade",
      "type": "event"
    },
    {
      "anonymous": false,
      "inputs": [
        {
          "indexed": false,
          "internalType": "address",
          "name": "player",
          "type": "address"
        },
        {
          "indexed": false,
          "internalType": "bytes4",
          "name": "move",
          "type": "bytes4"
        },
        {
          "indexed": false,
          "internalType": "uint256",
          "name": "currentStep",
          "type": "uint256"
        }
      ],
      "name": "MoveProposed",
      "type": "event"
    },
    {
      "anonymous": false,
      "inputs": [
        {
          "indexed": false,
          "internalType": "uint256",
          "name": "currentToken",
          "type": "uint256"
        }
      ],
      "name": "NewGameCreated",
      "type": "event"
    },
    {
      "anonymous": false,
      "inputs": [
        {
          "indexed": false,
          "internalType": "bool",
          "name": "isBlack",
          "type": "bool"
        },
        {
          "indexed": false,
          "internalType": "uint256",
          "name": "expirationTimer",
          "type": "uint256"
        }
      ],
      "name": "NextMoveCreated",
      "type": "event"
    },
    {
      "anonymous": false,
      "inputs": [
        {
          "indexed": true,
          "internalType": "address",
          "name": "previousOwner",
          "type": "address"
        },
        {
          "indexed": true,
          "internalType": "address",
          "name": "newOwner",
          "type": "address"
        }
      ],
      "name": "OwnershipTransferStarted",
      "type": "event"
    },
    {
      "anonymous": false,
      "inputs": [
        {
          "indexed": true,
          "internalType": "address",
          "name": "previousOwner",
          "type": "address"
        },
        {
          "indexed": true,
          "internalType": "address",
          "name": "newOwner",
          "type": "address"
        }
      ],
      "name": "OwnershipTransferred",
      "type": "event"
    },
    {
      "anonymous": false,
      "inputs": [
        {
          "indexed": false,
          "internalType": "address",
          "name": "userAddress",
          "type": "address"
        },
        {
          "indexed": false,
          "internalType": "bool",
          "name": "isBlack",
          "type": "bool"
        }
      ],
      "name": "UserRegistered",
      "type": "event"
    },
    {
      "inputs": [],
      "name": "BLACK_RESIGN",
      "outputs": [
        {
          "internalType": "uint8",
          "name": "",
          "type": "uint8"
        }
      ],
      "stateMutability": "view",
      "type": "function"
    },
    {
      "inputs": [],
      "name": "BLACK_WIN",
      "outputs": [
        {
          "internalType": "uint8",
          "name": "",
          "type": "uint8"
        }
      ],
      "stateMutability": "view",
      "type": "function"
    },
    {
      "inputs": [],
      "name": "DRAW",
      "outputs": [
        {
          "internalType": "uint8",
          "name": "",
          "type": "uint8"
        }
      ],
      "stateMutability": "view",
      "type": "function"
    },
    {
      "inputs": [],
      "name": "MAX_TIME_PER_MOVE",
      "outputs": [
        {
          "internalType": "uint256",
          "name": "",
          "type": "uint256"
        }
      ],
      "stateMutability": "view",
      "type": "function"
    },
    {
      "inputs": [],
      "name": "STALEMATE",
      "outputs": [
        {
          "internalType": "uint8",
          "name": "",
          "type": "uint8"
        }
      ],
      "stateMutability": "view",
      "type": "function"
    },
    {
      "inputs": [],
      "name": "WHITE_RESIGN",
      "outputs": [
        {
          "internalType": "uint8",
          "name": "",
          "type": "uint8"
        }
      ],
      "stateMutability": "view",
      "type": "function"
    },
    {
      "inputs": [],
      "name": "WHITE_WIN",
      "outputs": [
        {
          "internalType": "uint8",
          "name": "",
          "type": "uint8"
        }
      ],
      "stateMutability": "view",
      "type": "function"
    },
    {
      "inputs": [],
      "name": "acceptOwnership",
      "outputs": [],
      "stateMutability": "nonpayable",
      "type": "function"
    },
    {
      "inputs": [],
      "name": "currentToken",
      "outputs": [
        {
          "internalType": "uint256",
          "name": "",
          "type": "uint256"
        }
      ],
      "stateMutability": "view",
      "type": "function"
    },
    {
      "inputs": [],
      "name": "gameState",
      "outputs": [
        {
          "internalType": "contract IFKCGame",
          "name": "",
          "type": "address"
        }
      ],
      "stateMutability": "view",
      "type": "function"
    },
    {
      "inputs": [
        {
          "internalType": "uint256",
          "name": "",
          "type": "uint256"
        }
      ],
      "name": "games",
      "outputs": [
        {
          "internalType": "uint256",
          "name": "gameId",
          "type": "uint256"
        },
        {
          "internalType": "uint256",
          "name": "nextPlayTimer",
          "type": "uint256"
        },
        {
          "internalType": "bool",
          "name": "isBlackToPlay",
          "type": "bool"
        },
        {
          "internalType": "uint256",
          "name": "totalTokens",
          "type": "uint256"
        },
        {
          "internalType": "uint256",
          "name": "proposeResign",
          "type": "uint256"
        },
        {
          "internalType": "uint256",
          "name": "proposeDraw",
          "type": "uint256"
        },
        {
          "internalType": "uint256",
          "name": "currentStep",
          "type": "uint256"
        }
      ],
      "stateMutability": "view",
      "type": "function"
    },
    {
      "inputs": [
        {
          "internalType": "bytes4",
          "name": "",
          "type": "bytes4"
        }
      ],
      "name": "movesRequest",
      "outputs": [
        {
          "internalType": "uint256",
          "name": "",
          "type": "uint256"
        }
      ],
      "stateMutability": "view",
      "type": "function"
    },
    {
      "inputs": [],
      "name": "owner",
      "outputs": [
        {
          "internalType": "address",
          "name": "",
          "type": "address"
        }
      ],
      "stateMutability": "view",
      "type": "function"
    },
    {
      "inputs": [],
      "name": "pendingOwner",
      "outputs": [
        {
          "internalType": "address",
          "name": "",
          "type": "address"
        }
      ],
      "stateMutability": "view",
      "type": "function"
    },
    {
      "inputs": [
        {
          "internalType": "address",
          "name": "",
          "type": "address"
        }
      ],
      "name": "registeredBlackPlayer",
      "outputs": [
        {
          "internalType": "uint256",
          "name": "",
          "type": "uint256"
        }
      ],
      "stateMutability": "view",
      "type": "function"
    },
    {
      "inputs": [
        {
          "internalType": "address",
          "name": "",
          "type": "address"
        }
      ],
      "name": "registeredWhitePlayer",
      "outputs": [
        {
          "internalType": "uint256",
          "name": "",
          "type": "uint256"
        }
      ],
      "stateMutability": "view",
      "type": "function"
    },
    {
      "inputs": [
        {
          "internalType": "address",
          "name": "newOwner",
          "type": "address"
        }
      ],
      "name": "transferOwnership",
      "outputs": [],
      "stateMutability": "nonpayable",
      "type": "function"
    },
    {
      "inputs": [],
      "name": "renounceOwnership",
      "outputs": [],
      "stateMutability": "nonpayable",
      "type": "function"
    },
    {
      "inputs": [
        {
          "internalType": "contract IFKCGame",
          "name": "_gameState",
          "type": "address"
        }
      ],
      "name": "configure",
      "outputs": [],
      "stateMutability": "nonpayable",
      "type": "function"
    },
    {
      "inputs": [
        {
          "internalType": "bool",
          "name": "isBlack",
          "type": "bool"
        }
      ],
      "name": "register",
      "outputs": [],
      "stateMutability": "nonpayable",
      "type": "function"
    },
    {
      "inputs": [
        {
          "internalType": "uint256",
          "name": "step",
          "type": "uint256"
        }
      ],
      "name": "proposeResign",
      "outputs": [],
      "stateMutability": "nonpayable",
      "type": "function"
    },
    {
      "inputs": [
        {
          "internalType": "bytes4",
          "name": "move",
          "type": "bytes4"
        },
        {
          "internalType": "uint256",
          "name": "step",
          "type": "uint256"
        }
      ],
      "name": "requestMove",
      "outputs": [],
      "stateMutability": "nonpayable",
      "type": "function"
    },
    {
      "inputs": [],
      "name": "findPopularMove",
      "outputs": [
        {
          "internalType": "bytes4",
          "name": "move",
          "type": "bytes4"
        },
        {
          "internalType": "uint256",
          "name": "total",
          "type": "uint256"
        }
      ],
      "stateMutability": "view",
      "type": "function"
    },
    {
      "inputs": [
        {
          "internalType": "address",
          "name": "operator",
          "type": "address"
        },
        {
          "internalType": "address",
          "name": "from",
          "type": "address"
        },
        {
          "internalType": "uint256",
          "name": "tokenId",
          "type": "uint256"
        },
        {
          "internalType": "bytes",
          "name": "data",
          "type": "bytes"
        }
      ],
      "name": "onERC721Received",
      "outputs": [
        {
          "internalType": "bytes4",
          "name": "",
          "type": "bytes4"
        }
      ],
      "stateMutability": "view",
      "type": "function"
    },
    {
      "inputs": [],
      "name": "canMoveNext",
      "outputs": [
        {
          "internalType": "bytes4",
          "name": "move",
          "type": "bytes4"
        },
        {
          "internalType": "uint256",
          "name": "total",
          "type": "uint256"
        }
      ],
      "stateMutability": "view",
      "type": "function"
    },
    {
      "inputs": [
        {
          "internalType": "string",
          "name": "nextState",
          "type": "string"
        },
        {
          "internalType": "uint8",
          "name": "result",
          "type": "uint8"
        }
      ],
      "name": "makeNextMove",
      "outputs": [],
      "stateMutability": "nonpayable",
      "type": "function"
    }
  ],
  "bytecode": "0x60806040523480156200001157600080fd5b5062000032620000266200003860201b60201c565b6200004060201b60201c565b62000142565b600033905090565b600160006101000a81549073ffffffffffffffffffffffffffffffffffffffff02191690556200007b816200007e60201b620017841760201c565b50565b60008060009054906101000a900473ffffffffffffffffffffffffffffffffffffffff169050816000806101000a81548173ffffffffffffffffffffffffffffffffffffffff021916908373ffffffffffffffffffffffffffffffffffffffff1602179055508173ffffffffffffffffffffffffffffffffffffffff168173ffffffffffffffffffffffffffffffffffffffff167f8be0079c531659141344cd1fd0a4f28419497f9722a3daafe3b4186f6b6457e060405160405180910390a35050565b6132d080620001526000396000f3fe608060405234801561001057600080fd5b506004361061018e5760003560e01c806379ba5097116100de578063cb2a086911610097578063e30c397811610071578063e30c397814610445578063e536ae5a14610463578063f2fde38b14610493578063fd5a088b146104af5761018e565b8063cb2a0869146103ed578063d1f9c24d1461040b578063df216c45146104295761018e565b806379ba509714610351578063836c081d1461035b57806389b9e05b146103795780638da5cb5b14610397578063b2d9c2ed146103b5578063be123145146103d15761018e565b80634da23b131161014b578063619d36ef11610125578063619d36ef146102f157806363c18dfe1461030f578063715018a61461032b57806375cb2672146103355761018e565b80634da23b13146102855780634de34bdc146102b557806356190e4d146102d35761018e565b806302a96e4714610193578063117a5b90146101b1578063150b7a02146101e7578063191de70514610217578063400494bf14610236578063444aa44214610266575b600080fd5b61019b6104cd565b6040516101a89190611fcb565b60405180910390f35b6101cb60048036038101906101c69190612026565b6104d3565b6040516101de979695949392919061206e565b60405180910390f35b61020160048036038101906101fc9190612281565b610532565b60405161020e919061233f565b60405180910390f35b61021f6105d6565b60405161022d92919061235a565b60405180910390f35b610250600480360381019061024b91906123af565b610794565b60405161025d9190611fcb565b60405180910390f35b61026e6107ac565b60405161027c92919061235a565b60405180910390f35b61029f600480360381019061029a91906123dc565b610965565b6040516102ac9190611fcb565b60405180910390f35b6102bd61097d565b6040516102ca9190612425565b60405180910390f35b6102db610982565b6040516102e89190612425565b60405180910390f35b6102f9610987565b6040516103069190612425565b60405180910390f35b61032960048036038101906103249190612440565b61098c565b005b610333610d76565b005b61034f600480360381019061034a91906124be565b610db9565b005b610359610e9e565b005b610363610f2b565b6040516103709190611fcb565b60405180910390f35b610381610f31565b60405161038e9190612425565b60405180910390f35b61039f610f36565b6040516103ac91906124fa565b60405180910390f35b6103cf60048036038101906103ca9190612026565b610f5f565b005b6103eb60048036038101906103e69190612541565b611152565b005b6103f56113f8565b6040516104029190612425565b60405180910390f35b6104136113fd565b60405161042091906125cd565b60405180910390f35b610443600480360381019061043e91906126b5565b611423565b005b61044d611690565b60405161045a91906124fa565b60405180910390f35b61047d600480360381019061047891906123dc565b6116ba565b60405161048a9190611fcb565b60405180910390f35b6104ad60048036038101906104a891906123dc565b6116d2565b005b6104b761177f565b6040516104c49190612425565b60405180910390f35b61025881565b600281815481106104e357600080fd5b90600052602060002090600802016000915090508060000154908060010154908060020160009054906101000a900460ff16908060030154908060050154908060060154908060070154905087565b6000600360009054906101000a900473ffffffffffffffffffffffffffffffffffffffff1673ffffffffffffffffffffffffffffffffffffffff163373ffffffffffffffffffffffffffffffffffffffff16146105c4576040517f08c379a00000000000000000000000000000000000000000000000000000000081526004016105bb9061276e565b60405180910390fd5b63150b7a0260e01b9050949350505050565b6000806000600260016004546105ec91906127bd565b815481106105fd576105fc6127f1565b5b906000526020600020906008020190506106156107ac565b80935081945050504281600101541161062e5750610790565b6000600360009054906101000a900473ffffffffffffffffffffffffffffffffffffffff1673ffffffffffffffffffffffffffffffffffffffff1663ffde0c746004546040518263ffffffff1660e01b815260040161068d9190611fcb565b600060405180830381865afa1580156106aa573d6000803e3d6000fd5b505050506040513d6000823e3d601f19601f820116820180604052508101906106d39190612bbc565b90508160020160009054906101000a900460ff1615610740576002670de0b6b3a76400008260200151516107079190612c05565b6107119190612c8e565b670de0b6b3a7640000846107259190612c05565b1161073257600080610735565b83835b935093505050610790565b6002670de0b6b3a764000082600001515161075b9190612c05565b6107659190612c8e565b670de0b6b3a7640000846107799190612c05565b1161078657600080610789565b83835b9350935050505b9091565b60076020528060005260406000206000915090505481565b6000806000600260016004546107c291906127bd565b815481106107d3576107d26127f1565b5b9060005260206000209060080201905060005b816004018054905081101561095f5782600760008460040184815481106108105761080f6127f1565b5b90600052602060002090600891828204019190066004029054906101000a900460e01b7bffffffffffffffffffffffffffffffffffffffffffffffffffffffff19167bffffffffffffffffffffffffffffffffffffffffffffffffffffffff1916815260200190815260200160002054111561094e5781600401818154811061089c5761089b6127f1565b5b90600052602060002090600891828204019190066004029054906101000a900460e01b9350600760008360040183815481106108db576108da6127f1565b5b90600052602060002090600891828204019190066004029054906101000a900460e01b7bffffffffffffffffffffffffffffffffffffffffffffffffffffffff19167bffffffffffffffffffffffffffffffffffffffffffffffffffffffff191681526020019081526020016000205492505b8061095890612cbf565b90506107e6565b50509091565b60056020528060005260406000206000915090505481565b600181565b600681565b600381565b60006002600160045461099f91906127bd565b815481106109b0576109af6127f1565b5b906000526020600020906008020190508060020160009054906101000a900460ff1615610a61578060000154600660003373ffffffffffffffffffffffffffffffffffffffff1673ffffffffffffffffffffffffffffffffffffffff1681526020019081526020016000205414610a5c576040517f08c379a0000000000000000000000000000000000000000000000000000000008152600401610a5390612d79565b60405180910390fd5b610ae7565b8060000154600560003373ffffffffffffffffffffffffffffffffffffffff1673ffffffffffffffffffffffffffffffffffffffff1681526020019081526020016000205414610ae6576040517f08c379a0000000000000000000000000000000000000000000000000000000008152600401610add90612e0b565b60405180910390fd5b5b600060026001600454610afa91906127bd565b81548110610b0b57610b0a6127f1565b5b9060005260206000209060080201905080600701548314610b61576040517f08c379a0000000000000000000000000000000000000000000000000000000008152600401610b5890612e77565b60405180910390fd5b6000600360009054906101000a900473ffffffffffffffffffffffffffffffffffffffff1673ffffffffffffffffffffffffffffffffffffffff1663ffde0c746004546040518263ffffffff1660e01b8152600401610bc09190611fcb565b600060405180830381865afa158015610bdd573d6000803e3d6000fd5b505050506040513d6000823e3d601f19601f82011682018060405250810190610c069190612bbc565b9050600060076000877bffffffffffffffffffffffffffffffffffffffffffffffffffffffff19167bffffffffffffffffffffffffffffffffffffffffffffffffffffffff191681526020019081526020016000205403610caf57816004018590806001815401808255809150506001900390600052602060002090600891828204019190066004029091909190916101000a81548163ffffffff021916908360e01c02179055505b600160076000877bffffffffffffffffffffffffffffffffffffffffffffffffffffffff19167bffffffffffffffffffffffffffffffffffffffffffffffffffffffff191681526020019081526020016000206000828254610d119190612e97565b925050819055506001826003016000828254610d2d9190612e97565b925050819055507f6069b26af7e9fdbabcd83678ce97dea6bc5e6c0d7d632e776d5ed566e3dae6b1338686604051610d6793929190612eed565b60405180910390a15050505050565b610d7e611848565b6040517f08c379a0000000000000000000000000000000000000000000000000000000008152600401610db090612f70565b60405180910390fd5b610dc1611848565b600073ffffffffffffffffffffffffffffffffffffffff16600360009054906101000a900473ffffffffffffffffffffffffffffffffffffffff1673ffffffffffffffffffffffffffffffffffffffff1614610e52576040517f08c379a0000000000000000000000000000000000000000000000000000000008152600401610e4990612fdc565b60405180910390fd5b80600360006101000a81548173ffffffffffffffffffffffffffffffffffffffff021916908373ffffffffffffffffffffffffffffffffffffffff160217905550610e9b6118c6565b50565b6000610ea8611aea565b90508073ffffffffffffffffffffffffffffffffffffffff16610ec9611690565b73ffffffffffffffffffffffffffffffffffffffff1614610f1f576040517f08c379a0000000000000000000000000000000000000000000000000000000008152600401610f169061306e565b60405180910390fd5b610f2881611af2565b50565b60045481565b600481565b60008060009054906101000a900473ffffffffffffffffffffffffffffffffffffffff16905090565b600060026001600454610f7291906127bd565b81548110610f8357610f826127f1565b5b906000526020600020906008020190508060020160009054906101000a900460ff1615611034578060000154600660003373ffffffffffffffffffffffffffffffffffffffff1673ffffffffffffffffffffffffffffffffffffffff168152602001908152602001600020541461102f576040517f08c379a000000000000000000000000000000000000000000000000000000000815260040161102690612d79565b60405180910390fd5b6110ba565b8060000154600560003373ffffffffffffffffffffffffffffffffffffffff1673ffffffffffffffffffffffffffffffffffffffff16815260200190815260200160002054146110b9576040517f08c379a00000000000000000000000000000000000000000000000000000000081526004016110b090612e0b565b60405180910390fd5b5b6000600260016004546110cd91906127bd565b815481106110de576110dd6127f1565b5b9060005260206000209060080201905080600701548314611134576040517f08c379a000000000000000000000000000000000000000000000000000000000815260040161112b90612e77565b60405180910390fd5b600181600501546111459190612e97565b8160050181905550505050565b60006002600160045461116591906127bd565b81548110611176576111756127f1565b5b906000526020600020906008020190508060000154600660003373ffffffffffffffffffffffffffffffffffffffff1673ffffffffffffffffffffffffffffffffffffffff168152602001908152602001600020540361120b576040517f08c379a000000000000000000000000000000000000000000000000000000000815260040161120290612d79565b60405180910390fd5b8060000154600560003373ffffffffffffffffffffffffffffffffffffffff1673ffffffffffffffffffffffffffffffffffffffff1681526020019081526020016000205403611290576040517f08c379a000000000000000000000000000000000000000000000000000000000815260040161128790612e0b565b60405180910390fd5b81156112e157600454600660003373ffffffffffffffffffffffffffffffffffffffff1673ffffffffffffffffffffffffffffffffffffffff16815260200190815260200160002081905550611328565b600454600560003373ffffffffffffffffffffffffffffffffffffffff1673ffffffffffffffffffffffffffffffffffffffff168152602001908152602001600020819055505b600360009054906101000a900473ffffffffffffffffffffffffffffffffffffffff1673ffffffffffffffffffffffffffffffffffffffff1663ea38bf5e33600454856040518463ffffffff1660e01b81526004016113899392919061308e565b600060405180830381600087803b1580156113a357600080fd5b505af11580156113b7573d6000803e3d6000fd5b505050507f28a24a60e275c9be5babc23ecefd3240b1fcd56ef4d3fe4818437200b55ae5ff33836040516113ec9291906130c5565b60405180910390a15050565b600281565b600360009054906101000a900473ffffffffffffffffffffffffffffffffffffffff1681565b61142b611848565b6000806114366105d6565b915091506000611444611b23565b90506000821180611458575060008160ff16115b611497576040517f08c379a000000000000000000000000000000000000000000000000000000000815260040161148e9061313a565b60405180910390fd5b7f54cbed56d463892e354712f48a76c96cb1b53352864eb8f5594cad3efbd45002836040516114c6919061233f565b60405180910390a16114d6611cd5565b600360009054906101000a900473ffffffffffffffffffffffffffffffffffffffff1673ffffffffffffffffffffffffffffffffffffffff16639d82bd4360045487866040518463ffffffff1660e01b81526004016115379392919061319e565b600060405180830381600087803b15801561155157600080fd5b505af1158015611565573d6000803e3d6000fd5b5050505060008460ff16118061157e575060008160ff16115b1561168057600360009054906101000a900473ffffffffffffffffffffffffffffffffffffffff1673ffffffffffffffffffffffffffffffffffffffff1663c544953160045460008460ff16116115d557866115d7565b835b6040518363ffffffff1660e01b81526004016115f49291906131dc565b600060405180830381600087803b15801561160e57600080fd5b505af1158015611622573d6000803e3d6000fd5b5050505061162e6118c6565b7f260525a806e0714f16de6fea0094e17a171fae8df7fbf6b271e695a7c709fd6260045460008360ff16116116635785611665565b825b6040516116739291906131dc565b60405180910390a1611689565b611688611dd1565b5b5050505050565b6000600160009054906101000a900473ffffffffffffffffffffffffffffffffffffffff16905090565b60066020528060005260406000206000915090505481565b6116da611848565b80600160006101000a81548173ffffffffffffffffffffffffffffffffffffffff021916908373ffffffffffffffffffffffffffffffffffffffff1602179055508073ffffffffffffffffffffffffffffffffffffffff1661173a610f36565b73ffffffffffffffffffffffffffffffffffffffff167f38d16b8cac22d99fc7c124b9cd0de2d3fa1faef420bfe791d8c362d765e2270060405160405180910390a350565b600581565b60008060009054906101000a900473ffffffffffffffffffffffffffffffffffffffff169050816000806101000a81548173ffffffffffffffffffffffffffffffffffffffff021916908373ffffffffffffffffffffffffffffffffffffffff1602179055508173ffffffffffffffffffffffffffffffffffffffff168173ffffffffffffffffffffffffffffffffffffffff167f8be0079c531659141344cd1fd0a4f28419497f9722a3daafe3b4186f6b6457e060405160405180910390a35050565b611850611aea565b73ffffffffffffffffffffffffffffffffffffffff1661186e610f36565b73ffffffffffffffffffffffffffffffffffffffff16146118c4576040517f08c379a00000000000000000000000000000000000000000000000000000000081526004016118bb90613251565b60405180910390fd5b565b6001600460008282546118d99190612e97565b9250508190555060026040518061010001604052806004548152602001610258426119049190612e97565b81526020016000151581526020016103e88152602001600067ffffffffffffffff81111561193557611934612156565b5b6040519080825280602002602001820160405280156119635781602001602082028036833780820191505090505b508152602001600081526020016000815260200160008152509080600181540180825580915050600190039060005260206000209060080201600090919091909150600082015181600001556020820151816001015560408201518160020160006101000a81548160ff0219169083151502179055506060820151816003015560808201518160040190805190602001906119ff929190611ec0565b5060a0820151816005015560c0820151816006015560e082015181600701555050600360009054906101000a900473ffffffffffffffffffffffffffffffffffffffff1673ffffffffffffffffffffffffffffffffffffffff1663d9b92ec76004546040518263ffffffff1660e01b8152600401611a7d9190611fcb565b600060405180830381600087803b158015611a9757600080fd5b505af1158015611aab573d6000803e3d6000fd5b505050507f40cd4960d42a9ef161fc5f47c7be8e95bbdf4ef5f7d149743de8787b224fa67c600454604051611ae09190611fcb565b60405180910390a1565b600033905090565b600160006101000a81549073ffffffffffffffffffffffffffffffffffffffff0219169055611b2081611784565b50565b60008060026001600454611b3791906127bd565b81548110611b4857611b476127f1565b5b906000526020600020906008020190506000816005015403611b6e576000915050611cd2565b6000600360009054906101000a900473ffffffffffffffffffffffffffffffffffffffff1673ffffffffffffffffffffffffffffffffffffffff1663ffde0c746004546040518263ffffffff1660e01b8152600401611bcd9190611fcb565b600060405180830381865afa158015611bea573d6000803e3d6000fd5b505050506040513d6000823e3d601f19601f82011682018060405250810190611c139190612bbc565b90508160020160009054906101000a900460ff1615611c81576002670de0b6b3a7640000826020015151611c479190612c05565b611c519190612c8e565b670de0b6b3a76400008360050154611c699190612c05565b11611c75576000611c78565b60065b92505050611cd2565b6002670de0b6b3a7640000826000015151611c9c9190612c05565b611ca69190612c8e565b670de0b6b3a76400008360050154611cbe9190612c05565b11611cca576000611ccd565b60055b925050505b90565b600060026001600454611ce891906127bd565b81548110611cf957611cf86127f1565b5b9060005260206000209060080201905060005b8160040180549050811015611dbd57600060076000846004018481548110611d3757611d366127f1565b5b90600052602060002090600891828204019190066004029054906101000a900460e01b7bffffffffffffffffffffffffffffffffffffffffffffffffffffffff19167bffffffffffffffffffffffffffffffffffffffffffffffffffffffff19168152602001908152602001600020819055508080611db590612cbf565b915050611d0c565b50806004016000611dce9190611f6d565b50565b600060026001600454611de491906127bd565b81548110611df557611df46127f1565b5b906000526020600020906008020190506001816007016000828254611e1a9190612e97565b9250508190555061025842611e2f9190612e97565b8160010181905550600081600501819055508060020160009054906101000a900460ff16158160020160006101000a81548160ff0219169083151502179055507f2660f947c7dae4e9c83614cb7dbdee0c16efc13e15a47d9c9591fe1c9c39b50e8160020160009054906101000a900460ff168260010154604051611eb5929190613271565b60405180910390a150565b82805482825590600052602060002090600701600890048101928215611f5c5791602002820160005b83821115611f2a57835183826101000a81548163ffffffff021916908360e01c02179055509260200192600401602081600301049283019260010302611ee9565b8015611f5a5782816101000a81549063ffffffff0219169055600401602081600301049283019260010302611f2a565b505b509050611f699190611f95565b5090565b508054600082556007016008900490600052602060002090810190611f929190611f95565b50565b5b80821115611fae576000816000905550600101611f96565b5090565b6000819050919050565b611fc581611fb2565b82525050565b6000602082019050611fe06000830184611fbc565b92915050565b6000604051905090565b600080fd5b600080fd5b61200381611fb2565b811461200e57600080fd5b50565b60008135905061202081611ffa565b92915050565b60006020828403121561203c5761203b611ff0565b5b600061204a84828501612011565b91505092915050565b60008115159050919050565b61206881612053565b82525050565b600060e082019050612083600083018a611fbc565b6120906020830189611fbc565b61209d604083018861205f565b6120aa6060830187611fbc565b6120b76080830186611fbc565b6120c460a0830185611fbc565b6120d160c0830184611fbc565b98975050505050505050565b600073ffffffffffffffffffffffffffffffffffffffff82169050919050565b6000612108826120dd565b9050919050565b612118816120fd565b811461212357600080fd5b50565b6000813590506121358161210f565b92915050565b600080fd5b600080fd5b6000601f19601f8301169050919050565b7f4e487b7100000000000000000000000000000000000000000000000000000000600052604160045260246000fd5b61218e82612145565b810181811067ffffffffffffffff821117156121ad576121ac612156565b5b80604052505050565b60006121c0611fe6565b90506121cc8282612185565b919050565b600067ffffffffffffffff8211156121ec576121eb612156565b5b6121f582612145565b9050602081019050919050565b82818337600083830152505050565b600061222461221f846121d1565b6121b6565b9050828152602081018484840111156122405761223f612140565b5b61224b848285612202565b509392505050565b600082601f8301126122685761226761213b565b5b8135612278848260208601612211565b91505092915050565b6000806000806080858703121561229b5761229a611ff0565b5b60006122a987828801612126565b94505060206122ba87828801612126565b93505060406122cb87828801612011565b925050606085013567ffffffffffffffff8111156122ec576122eb611ff5565b5b6122f887828801612253565b91505092959194509250565b60007fffffffff0000000000000000000000000000000000000000000000000000000082169050919050565b61233981612304565b82525050565b60006020820190506123546000830184612330565b92915050565b600060408201905061236f6000830185612330565b61237c6020830184611fbc565b9392505050565b61238c81612304565b811461239757600080fd5b50565b6000813590506123a981612383565b92915050565b6000602082840312156123c5576123c4611ff0565b5b60006123d38482850161239a565b91505092915050565b6000602082840312156123f2576123f1611ff0565b5b600061240084828501612126565b91505092915050565b600060ff82169050919050565b61241f81612409565b82525050565b600060208201905061243a6000830184612416565b92915050565b6000806040838503121561245757612456611ff0565b5b60006124658582860161239a565b925050602061247685828601612011565b9150509250929050565b600061248b826120fd565b9050919050565b61249b81612480565b81146124a657600080fd5b50565b6000813590506124b881612492565b92915050565b6000602082840312156124d4576124d3611ff0565b5b60006124e2848285016124a9565b91505092915050565b6124f4816120fd565b82525050565b600060208201905061250f60008301846124eb565b92915050565b61251e81612053565b811461252957600080fd5b50565b60008135905061253b81612515565b92915050565b60006020828403121561255757612556611ff0565b5b60006125658482850161252c565b91505092915050565b6000819050919050565b600061259361258e612589846120dd565b61256e565b6120dd565b9050919050565b60006125a582612578565b9050919050565b60006125b78261259a565b9050919050565b6125c7816125ac565b82525050565b60006020820190506125e260008301846125be565b92915050565b600067ffffffffffffffff82111561260357612602612156565b5b61260c82612145565b9050602081019050919050565b600061262c612627846125e8565b6121b6565b90508281526020810184848401111561264857612647612140565b5b612653848285612202565b509392505050565b600082601f8301126126705761266f61213b565b5b8135612680848260208601612619565b91505092915050565b61269281612409565b811461269d57600080fd5b50565b6000813590506126af81612689565b92915050565b600080604083850312156126cc576126cb611ff0565b5b600083013567ffffffffffffffff8111156126ea576126e9611ff5565b5b6126f68582860161265b565b9250506020612707858286016126a0565b9150509250929050565b600082825260208201905092915050565b7f696e76616c6964206f70657261746f7200000000000000000000000000000000600082015250565b6000612758601083612711565b915061276382612722565b602082019050919050565b600060208201905081810360008301526127878161274b565b9050919050565b7f4e487b7100000000000000000000000000000000000000000000000000000000600052601160045260246000fd5b60006127c882611fb2565b91506127d383611fb2565b9250828210156127e6576127e561278e565b5b828203905092915050565b7f4e487b7100000000000000000000000000000000000000000000000000000000600052603260045260246000fd5b600080fd5b600080fd5b600067ffffffffffffffff82111561284557612844612156565b5b602082029050602081019050919050565b600080fd5b60008151905061286a8161210f565b92915050565b600061288361287e8461282a565b6121b6565b905080838252602082019050602084028301858111156128a6576128a5612856565b5b835b818110156128cf57806128bb888261285b565b8452602084019350506020810190506128a8565b5050509392505050565b600082601f8301126128ee576128ed61213b565b5b81516128fe848260208601612870565b91505092915050565b60005b8381101561292557808201518184015260208101905061290a565b83811115612934576000848401525b50505050565b600061294d612948846125e8565b6121b6565b90508281526020810184848401111561296957612968612140565b5b612974848285612907565b509392505050565b600082601f8301126129915761299061213b565b5b81516129a184826020860161293a565b91505092915050565b600067ffffffffffffffff8211156129c5576129c4612156565b5b602082029050602081019050919050565b6000815190506129e581612383565b92915050565b60006129fe6129f9846129aa565b6121b6565b90508083825260208201905060208402830185811115612a2157612a20612856565b5b835b81811015612a4a5780612a3688826129d6565b845260208401935050602081019050612a23565b5050509392505050565b600082601f830112612a6957612a6861213b565b5b8151612a798482602086016129eb565b91505092915050565b600081519050612a9181612515565b92915050565b600081519050612aa681612689565b92915050565b600060c08284031215612ac257612ac1612820565b5b612acc60c06121b6565b9050600082015167ffffffffffffffff811115612aec57612aeb612825565b5b612af8848285016128d9565b600083015250602082015167ffffffffffffffff811115612b1c57612b1b612825565b5b612b28848285016128d9565b602083015250604082015167ffffffffffffffff811115612b4c57612b4b612825565b5b612b588482850161297c565b604083015250606082015167ffffffffffffffff811115612b7c57612b7b612825565b5b612b8884828501612a54565b6060830152506080612b9c84828501612a82565b60808301525060a0612bb084828501612a97565b60a08301525092915050565b600060208284031215612bd257612bd1611ff0565b5b600082015167ffffffffffffffff811115612bf057612bef611ff5565b5b612bfc84828501612aac565b91505092915050565b6000612c1082611fb2565b9150612c1b83611fb2565b9250817fffffffffffffffffffffffffffffffffffffffffffffffffffffffffffffffff0483118215151615612c5457612c5361278e565b5b828202905092915050565b7f4e487b7100000000000000000000000000000000000000000000000000000000600052601260045260246000fd5b6000612c9982611fb2565b9150612ca483611fb2565b925082612cb457612cb3612c5f565b5b828204905092915050565b6000612cca82611fb2565b91507fffffffffffffffffffffffffffffffffffffffffffffffffffffffffffffffff8203612cfc57612cfb61278e565b5b600182019050919050565b7f75736572207265676973746572656420617320626c61636b20706c617965722060008201527f666f7220726563656e742067616d650000000000000000000000000000000000602082015250565b6000612d63602f83612711565b9150612d6e82612d07565b604082019050919050565b60006020820190508181036000830152612d9281612d56565b9050919050565b7f75736572207265676973746572656420617320776869746520706c617965722060008201527f666f7220726563656e742067616d650000000000000000000000000000000000602082015250565b6000612df5602f83612711565b9150612e0082612d99565b604082019050919050565b60006020820190508181036000830152612e2481612de8565b9050919050565b7f6d6f7665206d61646520666f72207374657020696e76616c6964000000000000600082015250565b6000612e61601a83612711565b9150612e6c82612e2b565b602082019050919050565b60006020820190508181036000830152612e9081612e54565b9050919050565b6000612ea282611fb2565b9150612ead83611fb2565b9250827fffffffffffffffffffffffffffffffffffffffffffffffffffffffffffffffff03821115612ee257612ee161278e565b5b828201905092915050565b6000606082019050612f0260008301866124eb565b612f0f6020830185612330565b612f1c6040830184611fbc565b949350505050565b7f63616e6e6f742072656e6f756e6365206f776e65727368697000000000000000600082015250565b6000612f5a601983612711565b9150612f6582612f24565b602082019050919050565b60006020820190508181036000830152612f8981612f4d565b9050919050565b7f63616e6e6f7420696e697469616c697365206d6f7265207468616e206f6e6365600082015250565b6000612fc6602083612711565b9150612fd182612f90565b602082019050919050565b60006020820190508181036000830152612ff581612fb9565b9050919050565b7f4f776e61626c6532537465703a2063616c6c6572206973206e6f74207468652060008201527f6e6577206f776e65720000000000000000000000000000000000000000000000602082015250565b6000613058602983612711565b915061306382612ffc565b604082019050919050565b600060208201905081810360008301526130878161304b565b9050919050565b60006060820190506130a360008301866124eb565b6130b06020830185611fbc565b6130bd604083018461205f565b949350505050565b60006040820190506130da60008301856124eb565b6130e7602083018461205f565b9392505050565b7f696e76616c6964206e6f206d6f76657320666f756e6400000000000000000000600082015250565b6000613124601683612711565b915061312f826130ee565b602082019050919050565b6000602082019050818103600083015261315381613117565b9050919050565b600081519050919050565b60006131708261315a565b61317a8185612711565b935061318a818560208601612907565b61319381612145565b840191505092915050565b60006060820190506131b36000830186611fbc565b81810360208301526131c58185613165565b90506131d46040830184612330565b949350505050565b60006040820190506131f16000830185611fbc565b6131fe6020830184612416565b9392505050565b7f4f776e61626c653a2063616c6c6572206973206e6f7420746865206f776e6572600082015250565b600061323b602083612711565b915061324682613205565b602082019050919050565b6000602082019050818103600083015261326a8161322e565b9050919050565b6000604082019050613286600083018561205f565b6132936020830184611fbc565b939250505056fea26469706673582212207d1c8eb97efe365ccc4e66a24fe50de37d50ef960763ff1689ca1fc0d6f25b2364736f6c634300080d0033",
  "immutableReferences": {},
  "source": "// SPDX-License-Identifier: MIT\n\npragma solidity ^0.8.13;\n\nimport \"./interfaces/IFKCGame.sol\";\nimport \"@openzeppelin/contracts/token/ERC721/IERC721Receiver.sol\";\nimport \"@openzeppelin/contracts/access/Ownable2Step.sol\";\n\n/**\n * @title FKCController\n * @notice This contract handles the logic and control of a game using tokens.\n * @dev TODO: Integrate chess verification on-chain.\n */\n\ncontract FKCController is IERC721Receiver, Ownable2Step {\n    struct Game {\n        uint256 gameId;\n        uint256 nextPlayTimer;\n        bool isBlackToPlay;\n        uint256 totalTokens; // number of tokens collected for this game round\n        bytes4[] proposedMoves;\n        uint256 proposeResign; // number of users proposing resign for current play\n        uint256 proposeDraw;\n        uint256 currentStep; // current move in the game\n    }\n\n    Game[] public games;\n    IFKCGame public gameState;\n    uint256 public currentToken;\n\n    uint8 public constant WHITE_WIN = 1;\n    uint8 public constant BLACK_WIN = 2;\n    uint8 public constant DRAW = 3;\n    uint8 public constant STALEMATE = 4;\n    uint8 public constant WHITE_RESIGN = 5;\n    uint8 public constant BLACK_RESIGN = 6;\n    uint256 public constant MAX_TIME_PER_MOVE = 10 minutes;\n\n    mapping(address => uint256) public registeredWhitePlayer;\n    mapping(address => uint256) public registeredBlackPlayer;\n    mapping(bytes4 => uint256) public movesRequest;\n\n    event NewGameCreated(uint256 currentToken);\n    event NextMoveCreated(bool isBlack, uint256 expirationTimer);\n    event UserRegistered(address userAddress, bool isBlack);\n    event MoveProposed(address player, bytes4 move, uint256 currentStep);\n    event MoveMade(bytes4 move);\n    event GameCompleted(uint256 tokenId, uint8 result);\n\n    constructor() {}\n\n    modifier validPlayer() {\n        Game storage currentGame = games[currentToken - 1];\n\n        if (currentGame.isBlackToPlay) {\n            require(\n                registeredBlackPlayer[msg.sender] == currentGame.gameId,\n                \"user registered as black player for recent game\"\n            );\n        } else {\n            require(\n                registeredWhitePlayer[msg.sender] == currentGame.gameId,\n                \"user registered as white player for recent game\"\n            );\n        }\n        _;\n    }\n\n    // Overridden renounceOwnership function to do nothing (intentional design choice)\n    function renounceOwnership() public virtual override onlyOwner {\n        // do nothing\n        revert(\"cannot renounce ownership\");\n    }\n\n    /**\n     * @notice Configures the game state and initializes the first game.\n     * @param _gameState The game state contract to be set.\n     */\n    function configure(IFKCGame _gameState) public onlyOwner {\n        require(\n            address(gameState) == address(0),\n            \"cannot initialise more than once\"\n        );\n        gameState = _gameState;\n        createNewGame();\n    }\n\n    /**\n     * @dev Creates a new game round.\n     */\n    function createNewGame() internal {\n        currentToken += 1;\n        games.push(\n            Game(\n                currentToken,\n                block.timestamp + MAX_TIME_PER_MOVE,\n                false,\n                1000,\n                new bytes4[](0),\n                0,\n                0,\n                0\n            )\n        );\n        // mint next game!\n        gameState.mintNextGame(currentToken);\n        emit NewGameCreated(currentToken);\n    }\n\n    /**\n     * @dev Resets the proposed moves and their requests.\n     */\n    function reset() private {\n        Game storage currentGame = games[currentToken - 1];\n        for (uint256 i = 0; i < currentGame.proposedMoves.length; i++) {\n            movesRequest[currentGame.proposedMoves[i]] = 0;\n        }\n        delete currentGame.proposedMoves;\n    }\n\n    /**\n     * @dev Sets the conditions for the next move.\n     */\n    function nextPlay() private {\n        Game storage currentGame = games[currentToken - 1];\n\n        currentGame.currentStep += 1;\n        currentGame.nextPlayTimer = block.timestamp + MAX_TIME_PER_MOVE;\n        currentGame.proposeResign = 0;\n        currentGame.isBlackToPlay = !currentGame.isBlackToPlay;\n\n        emit NextMoveCreated(\n            currentGame.isBlackToPlay,\n            currentGame.nextPlayTimer\n        );\n    }\n\n    /**\n     * @notice Registers a user as a white or black player.\n     * @param isBlack True if registering as a black player, false for white.\n     */\n    function register(bool isBlack) external {\n        Game storage currentGame = games[currentToken - 1];\n\n        require(\n            registeredBlackPlayer[msg.sender] != currentGame.gameId,\n            \"user registered as black player for recent game\"\n        );\n        require(\n            registeredWhitePlayer[msg.sender] != currentGame.gameId,\n            \"user registered as white player for recent game\"\n        );\n\n        if (isBlack) {\n            registeredBlackPlayer[msg.sender] = currentToken;\n        } else {\n            registeredWhitePlayer[msg.sender] = currentToken;\n        }\n        gameState.addUserToGame(msg.sender, currentToken, isBlack);\n\n        emit UserRegistered(msg.sender, isBlack);\n    }\n\n    /**\n     * @notice Allows a player to propose resignation.\n     * @param step The current game step.\n     */\n    function proposeResign(uint256 step) external validPlayer {\n        Game storage current = games[currentToken - 1];\n        require(step == current.currentStep, \"move made for step invalid\");\n        current.proposeResign = current.proposeResign + 1;\n    }\n\n    /**\n     * @notice Allows a player to request a move.\n     * @param move The move being proposed.\n     * @param step The current game step.\n     */\n    function requestMove(bytes4 move, uint256 step) external validPlayer {\n        Game storage current = games[currentToken - 1];\n        require(step == current.currentStep, \"move made for step invalid\");\n        IFKCGame.GameState memory currentGame = gameState.getGameState(\n            currentToken\n        );\n\n        if (movesRequest[move] == 0) {\n            current.proposedMoves.push(move);\n        }\n        movesRequest[move] += 1;\n        current.totalTokens += 1;\n\n        // Move Requested\n        emit MoveProposed(msg.sender, move, step);\n    }\n\n    /**\n     * @notice Finds the most popular move proposed by players.\n     * @return move The most popular move.\n     * @return total The total count of votes for that move.\n     */\n    function findPopularMove()\n        public\n        view\n        returns (bytes4 move, uint256 total)\n    {\n        Game storage current = games[currentToken - 1];\n\n        for (uint256 i = 0; i < current.proposedMoves.length; ++i) {\n            if (movesRequest[current.proposedMoves[i]] > total) {\n                move = current.proposedMoves[i];\n                total = movesRequest[current.proposedMoves[i]];\n            }\n        }\n    }\n\n    function onERC721Received(\n        address operator,\n        address from,\n        uint256 tokenId,\n        bytes memory data\n    ) external view returns (bytes4) {\n        require(msg.sender == address(gameState), \"invalid operator\");\n        return IERC721Receiver.onERC721Received.selector;\n    }\n\n    function canMoveNext() public view returns (bytes4 move, uint256 total) {\n        Game storage current = games[currentToken - 1];\n        (move, total) = findPopularMove();\n\n        if (current.nextPlayTimer <= block.timestamp) {\n            return (move, total);\n        }\n        IFKCGame.GameState memory state = gameState.getGameState(currentToken);\n\n        if (current.isBlackToPlay) {\n            return\n                total * 1 ether > (state.blackPlayers.length * 1 ether) / 2\n                    ? (move, total)\n                    : (bytes4(\"\"), 0);\n        }\n        return\n            total * 1 ether > (state.whitePlayers.length * 1 ether) / 2\n                ? (move, total)\n                : (bytes4(\"\"), 0);\n    }\n\n    /**\n     * @notice Compute whether current move is resignation\n     */\n    function isResigned() internal view returns (uint8) {\n        Game storage current = games[currentToken - 1];\n        if (current.proposeResign == 0) {\n            return 0;\n        }\n        IFKCGame.GameState memory state = gameState.getGameState(currentToken);\n        if (current.isBlackToPlay) {\n            return (current.proposeResign * 1 ether > (state.blackPlayers.length * 1 ether) / 2) ? BLACK_RESIGN : 0;\n        }\n        else {\n            return (current.proposeResign * 1 ether > (state.whitePlayers.length * 1 ether) / 2) ? WHITE_RESIGN : 0;\n        }\n    }\n\n    /**\n     * @notice Computes and finalizes the next game move.\n     * @param nextState - state to persist to the smart contract\n     * @param result - result of the game\n     */\n    function makeNextMove(\n        string memory nextState,\n        uint8 result\n    ) external onlyOwner {\n        // find the move to be made\n        (bytes4 move, uint256 total) = canMoveNext();\n        uint8 resigned = isResigned();\n\n        require(total > 0 || resigned > 0, \"invalid no moves found\");\n\n        emit MoveMade(move);\n        reset();\n        gameState.updateGameState(currentToken, nextState, move);\n\n        if (result > 0 || resigned > 0) {\n            gameState.endGame(currentToken, resigned > 0 ? resigned : result);\n            createNewGame();\n            emit GameCompleted(currentToken, resigned > 0 ? resigned : result);\n        } else {\n            nextPlay();\n        }\n    }\n}\n",
  "sourcePath": "/Users/sprect8/development/hackathon/navh/kingscounsel/kc-blockchain/contracts/FKCController.sol",
  "compiler": {
    "name": "solc",
    "version": "0.8.13+commit.abaa5c0e.Emscripten.clang"
  },
  "schemaVersion": "3.4.15",
  "updatedAt": "2023-08-20T22:19:48.376Z",
  "devdoc": {
    "details": "TODO: Integrate chess verification on-chain.",
    "kind": "dev",
    "methods": {
      "acceptOwnership()": {
        "details": "The new owner accepts the ownership transfer."
      },
      "configure(address)": {
        "params": {
          "_gameState": "The game state contract to be set."
        }
      },
      "findPopularMove()": {
        "returns": {
          "move": "The most popular move.",
          "total": "The total count of votes for that move."
        }
      },
      "makeNextMove(string,uint8)": {
        "params": {
          "nextState": "- state to persist to the smart contract",
          "result": "- result of the game"
        }
      },
      "onERC721Received(address,address,uint256,bytes)": {
        "details": "Whenever an {IERC721} `tokenId` token is transferred to this contract via {IERC721-safeTransferFrom} by `operator` from `from`, this function is called. It must return its Solidity selector to confirm the token transfer. If any other value is returned or the interface is not implemented by the recipient, the transfer will be reverted. The selector can be obtained in Solidity with `IERC721Receiver.onERC721Received.selector`."
      },
      "owner()": {
        "details": "Returns the address of the current owner."
      },
      "pendingOwner()": {
        "details": "Returns the address of the pending owner."
      },
      "proposeResign(uint256)": {
        "params": {
          "step": "The current game step."
        }
      },
      "register(bool)": {
        "params": {
          "isBlack": "True if registering as a black player, false for white."
        }
      },
      "renounceOwnership()": {
        "details": "Leaves the contract without owner. It will not be possible to call `onlyOwner` functions. Can only be called by the current owner. NOTE: Renouncing ownership will leave the contract without an owner, thereby disabling any functionality that is only available to the owner."
      },
      "requestMove(bytes4,uint256)": {
        "params": {
          "move": "The move being proposed.",
          "step": "The current game step."
        }
      },
      "transferOwnership(address)": {
        "details": "Starts the ownership transfer of the contract to a new account. Replaces the pending transfer if there is one. Can only be called by the current owner."
      }
    },
    "title": "FKCController",
    "version": 1
  },
  "userdoc": {
    "kind": "user",
    "methods": {
      "configure(address)": {
        "notice": "Configures the game state and initializes the first game."
      },
      "findPopularMove()": {
        "notice": "Finds the most popular move proposed by players."
      },
      "makeNextMove(string,uint8)": {
        "notice": "Computes and finalizes the next game move."
      },
      "proposeResign(uint256)": {
        "notice": "Allows a player to propose resignation."
      },
      "register(bool)": {
        "notice": "Registers a user as a white or black player."
      },
      "requestMove(bytes4,uint256)": {
        "notice": "Allows a player to request a move."
      }
    },
    "notice": "This contract handles the logic and control of a game using tokens.",
    "version": 1
  }
}