{
  "contractName": "FKCGame",
  "abi": [
    {
      "inputs": [
        {
          "internalType": "address",
          "name": "_owner",
          "type": "address"
        }
      ],
      "stateMutability": "nonpayable",
      "type": "constructor"
    },
    {
      "anonymous": false,
      "inputs": [
        {
          "indexed": true,
          "internalType": "address",
          "name": "owner",
          "type": "address"
        },
        {
          "indexed": true,
          "internalType": "address",
          "name": "approved",
          "type": "address"
        },
        {
          "indexed": true,
          "internalType": "uint256",
          "name": "tokenId",
          "type": "uint256"
        }
      ],
      "name": "Approval",
      "type": "event"
    },
    {
      "anonymous": false,
      "inputs": [
        {
          "indexed": true,
          "internalType": "address",
          "name": "owner",
          "type": "address"
        },
        {
          "indexed": true,
          "internalType": "address",
          "name": "operator",
          "type": "address"
        },
        {
          "indexed": false,
          "internalType": "bool",
          "name": "approved",
          "type": "bool"
        }
      ],
      "name": "ApprovalForAll",
      "type": "event"
    },
    {
      "anonymous": false,
      "inputs": [
        {
          "indexed": false,
          "internalType": "uint256",
          "name": "tokenId",
          "type": "uint256"
        },
        {
          "indexed": false,
          "internalType": "string",
          "name": "state",
          "type": "string"
        },
        {
          "indexed": false,
          "internalType": "bytes4",
          "name": "move",
          "type": "bytes4"
        }
      ],
      "name": "GameStateUpdated",
      "type": "event"
    },
    {
      "anonymous": false,
      "inputs": [
        {
          "indexed": true,
          "internalType": "address",
          "name": "previousOwner",
          "type": "address"
        },
        {
          "indexed": true,
          "internalType": "address",
          "name": "newOwner",
          "type": "address"
        }
      ],
      "name": "OwnershipTransferred",
      "type": "event"
    },
    {
      "anonymous": false,
      "inputs": [
        {
          "indexed": true,
          "internalType": "address",
          "name": "from",
          "type": "address"
        },
        {
          "indexed": true,
          "internalType": "address",
          "name": "to",
          "type": "address"
        },
        {
          "indexed": true,
          "internalType": "uint256",
          "name": "tokenId",
          "type": "uint256"
        }
      ],
      "name": "Transfer",
      "type": "event"
    },
    {
      "anonymous": false,
      "inputs": [
        {
          "indexed": false,
          "internalType": "address",
          "name": "user",
          "type": "address"
        },
        {
          "indexed": false,
          "internalType": "uint256",
          "name": "tokenId",
          "type": "uint256"
        },
        {
          "indexed": false,
          "internalType": "bool",
          "name": "addBlack",
          "type": "bool"
        }
      ],
      "name": "UserAdded",
      "type": "event"
    },
    {
      "inputs": [],
      "name": "MAX_USERS",
      "outputs": [
        {
          "internalType": "uint256",
          "name": "",
          "type": "uint256"
        }
      ],
      "stateMutability": "view",
      "type": "function",
      "constant": true
    },
    {
      "inputs": [
        {
          "internalType": "address",
          "name": "to",
          "type": "address"
        },
        {
          "internalType": "uint256",
          "name": "tokenId",
          "type": "uint256"
        }
      ],
      "name": "approve",
      "outputs": [],
      "stateMutability": "nonpayable",
      "type": "function"
    },
    {
      "inputs": [
        {
          "internalType": "address",
          "name": "owner",
          "type": "address"
        }
      ],
      "name": "balanceOf",
      "outputs": [
        {
          "internalType": "uint256",
          "name": "",
          "type": "uint256"
        }
      ],
      "stateMutability": "view",
      "type": "function",
      "constant": true
    },
    {
      "inputs": [
        {
          "internalType": "uint256",
          "name": "",
          "type": "uint256"
        }
      ],
      "name": "gameState",
      "outputs": [
        {
          "internalType": "string",
          "name": "currentGameState",
          "type": "string"
        },
        {
          "internalType": "bool",
          "name": "gameCompleted",
          "type": "bool"
        },
        {
          "internalType": "uint8",
          "name": "result",
          "type": "uint8"
        }
      ],
      "stateMutability": "view",
      "type": "function",
      "constant": true
    },
    {
      "inputs": [
        {
          "internalType": "uint256",
          "name": "tokenId",
          "type": "uint256"
        }
      ],
      "name": "getApproved",
      "outputs": [
        {
          "internalType": "address",
          "name": "",
          "type": "address"
        }
      ],
      "stateMutability": "view",
      "type": "function",
      "constant": true
    },
    {
      "inputs": [
        {
          "internalType": "address",
          "name": "owner",
          "type": "address"
        },
        {
          "internalType": "address",
          "name": "operator",
          "type": "address"
        }
      ],
      "name": "isApprovedForAll",
      "outputs": [
        {
          "internalType": "bool",
          "name": "",
          "type": "bool"
        }
      ],
      "stateMutability": "view",
      "type": "function",
      "constant": true
    },
    {
      "inputs": [],
      "name": "name",
      "outputs": [
        {
          "internalType": "string",
          "name": "",
          "type": "string"
        }
      ],
      "stateMutability": "view",
      "type": "function",
      "constant": true
    },
    {
      "inputs": [],
      "name": "owner",
      "outputs": [
        {
          "internalType": "address",
          "name": "",
          "type": "address"
        }
      ],
      "stateMutability": "view",
      "type": "function",
      "constant": true
    },
    {
      "inputs": [
        {
          "internalType": "uint256",
          "name": "tokenId",
          "type": "uint256"
        }
      ],
      "name": "ownerOf",
      "outputs": [
        {
          "internalType": "address",
          "name": "",
          "type": "address"
        }
      ],
      "stateMutability": "view",
      "type": "function",
      "constant": true
    },
    {
      "inputs": [
        {
          "internalType": "address",
          "name": "from",
          "type": "address"
        },
        {
          "internalType": "address",
          "name": "to",
          "type": "address"
        },
        {
          "internalType": "uint256",
          "name": "tokenId",
          "type": "uint256"
        }
      ],
      "name": "safeTransferFrom",
      "outputs": [],
      "stateMutability": "nonpayable",
      "type": "function"
    },
    {
      "inputs": [
        {
          "internalType": "address",
          "name": "from",
          "type": "address"
        },
        {
          "internalType": "address",
          "name": "to",
          "type": "address"
        },
        {
          "internalType": "uint256",
          "name": "tokenId",
          "type": "uint256"
        },
        {
          "internalType": "bytes",
          "name": "data",
          "type": "bytes"
        }
      ],
      "name": "safeTransferFrom",
      "outputs": [],
      "stateMutability": "nonpayable",
      "type": "function"
    },
    {
      "inputs": [
        {
          "internalType": "address",
          "name": "operator",
          "type": "address"
        },
        {
          "internalType": "bool",
          "name": "approved",
          "type": "bool"
        }
      ],
      "name": "setApprovalForAll",
      "outputs": [],
      "stateMutability": "nonpayable",
      "type": "function"
    },
    {
      "inputs": [
        {
          "internalType": "bytes4",
          "name": "interfaceId",
          "type": "bytes4"
        }
      ],
      "name": "supportsInterface",
      "outputs": [
        {
          "internalType": "bool",
          "name": "",
          "type": "bool"
        }
      ],
      "stateMutability": "view",
      "type": "function",
      "constant": true
    },
    {
      "inputs": [],
      "name": "symbol",
      "outputs": [
        {
          "internalType": "string",
          "name": "",
          "type": "string"
        }
      ],
      "stateMutability": "view",
      "type": "function",
      "constant": true
    },
    {
      "inputs": [
        {
          "internalType": "uint256",
          "name": "tokenId",
          "type": "uint256"
        }
      ],
      "name": "tokenURI",
      "outputs": [
        {
          "internalType": "string",
          "name": "",
          "type": "string"
        }
      ],
      "stateMutability": "view",
      "type": "function",
      "constant": true
    },
    {
      "inputs": [
        {
          "internalType": "address",
          "name": "from",
          "type": "address"
        },
        {
          "internalType": "address",
          "name": "to",
          "type": "address"
        },
        {
          "internalType": "uint256",
          "name": "tokenId",
          "type": "uint256"
        }
      ],
      "name": "transferFrom",
      "outputs": [],
      "stateMutability": "nonpayable",
      "type": "function"
    },
    {
      "inputs": [
        {
          "internalType": "address",
          "name": "newOwner",
          "type": "address"
        }
      ],
      "name": "transferOwnership",
      "outputs": [],
      "stateMutability": "nonpayable",
      "type": "function"
    },
    {
      "inputs": [
        {
          "internalType": "uint256",
          "name": "tokenId",
          "type": "uint256"
        }
      ],
      "name": "getGameState",
      "outputs": [
        {
          "components": [
            {
              "internalType": "address[]",
              "name": "whitePlayers",
              "type": "address[]"
            },
            {
              "internalType": "address[]",
              "name": "blackPlayers",
              "type": "address[]"
            },
            {
              "internalType": "string",
              "name": "currentGameState",
              "type": "string"
            },
            {
              "internalType": "bytes4[]",
              "name": "movesHistory",
              "type": "bytes4[]"
            },
            {
              "internalType": "bool",
              "name": "gameCompleted",
              "type": "bool"
            },
            {
              "internalType": "uint8",
              "name": "result",
              "type": "uint8"
            }
          ],
          "internalType": "struct IFKCGame.GameState",
          "name": "",
          "type": "tuple"
        }
      ],
      "stateMutability": "view",
      "type": "function",
      "constant": true
    },
    {
      "inputs": [
        {
          "internalType": "uint256",
          "name": "tokenId",
          "type": "uint256"
        },
        {
          "internalType": "string",
          "name": "state",
          "type": "string"
        },
        {
          "internalType": "bytes4",
          "name": "move",
          "type": "bytes4"
        }
      ],
      "name": "updateGameState",
      "outputs": [],
      "stateMutability": "nonpayable",
      "type": "function"
    },
    {
      "inputs": [
        {
          "internalType": "address",
          "name": "user",
          "type": "address"
        },
        {
          "internalType": "uint256",
          "name": "tokenId",
          "type": "uint256"
        },
        {
          "internalType": "bool",
          "name": "addBlack",
          "type": "bool"
        }
      ],
      "name": "addUserToGame",
      "outputs": [],
      "stateMutability": "nonpayable",
      "type": "function"
    },
    {
      "inputs": [
        {
          "internalType": "uint256",
          "name": "tokenId",
          "type": "uint256"
        },
        {
          "internalType": "uint8",
          "name": "result",
          "type": "uint8"
        }
      ],
      "name": "endGame",
      "outputs": [],
      "stateMutability": "nonpayable",
      "type": "function"
    },
    {
      "inputs": [
        {
          "internalType": "uint256",
          "name": "tokenId",
          "type": "uint256"
        }
      ],
      "name": "mintNextGame",
      "outputs": [],
      "stateMutability": "nonpayable",
      "type": "function"
    },
    {
      "inputs": [],
      "name": "renounceOwnership",
      "outputs": [],
      "stateMutability": "nonpayable",
      "type": "function"
    }
  ],
  "bytecode": "0x60806040523480156200001157600080fd5b506040516200435e3803806200435e833981810160405281019062000037919062000448565b6040518060400160405280600381526020017f464b4300000000000000000000000000000000000000000000000000000000008152506040518060400160405280600f81526020017f466f72744b6e69676874436865737300000000000000000000000000000000008152508160009080519060200190620000bb9291906200032e565b508060019080519060200190620000d49291906200032e565b505050620000f7620000eb6200010f60201b60201c565b6200011760201b60201c565b6200010881620001dd60201b60201c565b50620005f9565b600033905090565b6000600660009054906101000a900473ffffffffffffffffffffffffffffffffffffffff16905081600660006101000a81548173ffffffffffffffffffffffffffffffffffffffff021916908373ffffffffffffffffffffffffffffffffffffffff1602179055508173ffffffffffffffffffffffffffffffffffffffff168173ffffffffffffffffffffffffffffffffffffffff167f8be0079c531659141344cd1fd0a4f28419497f9722a3daafe3b4186f6b6457e060405160405180910390a35050565b620001ed6200027360201b60201c565b600073ffffffffffffffffffffffffffffffffffffffff168173ffffffffffffffffffffffffffffffffffffffff16036200025f576040517f08c379a0000000000000000000000000000000000000000000000000000000008152600401620002569062000501565b60405180910390fd5b62000270816200011760201b60201c565b50565b620002836200010f60201b60201c565b73ffffffffffffffffffffffffffffffffffffffff16620002a96200030460201b60201c565b73ffffffffffffffffffffffffffffffffffffffff161462000302576040517f08c379a0000000000000000000000000000000000000000000000000000000008152600401620002f99062000573565b60405180910390fd5b565b6000600660009054906101000a900473ffffffffffffffffffffffffffffffffffffffff16905090565b8280546200033c90620005c4565b90600052602060002090601f016020900481019282620003605760008555620003ac565b82601f106200037b57805160ff1916838001178555620003ac565b82800160010185558215620003ac579182015b82811115620003ab5782518255916020019190600101906200038e565b5b509050620003bb9190620003bf565b5090565b5b80821115620003da576000816000905550600101620003c0565b5090565b600080fd5b600073ffffffffffffffffffffffffffffffffffffffff82169050919050565b60006200041082620003e3565b9050919050565b620004228162000403565b81146200042e57600080fd5b50565b600081519050620004428162000417565b92915050565b600060208284031215620004615762000460620003de565b5b6000620004718482850162000431565b91505092915050565b600082825260208201905092915050565b7f4f776e61626c653a206e6577206f776e657220697320746865207a65726f206160008201527f6464726573730000000000000000000000000000000000000000000000000000602082015250565b6000620004e96026836200047a565b9150620004f6826200048b565b604082019050919050565b600060208201905081810360008301526200051c81620004da565b9050919050565b7f4f776e61626c653a2063616c6c6572206973206e6f7420746865206f776e6572600082015250565b60006200055b6020836200047a565b9150620005688262000523565b602082019050919050565b600060208201905081810360008301526200058e816200054c565b9050919050565b7f4e487b7100000000000000000000000000000000000000000000000000000000600052602260045260246000fd5b60006002820490506001821680620005dd57607f821691505b602082108103620005f357620005f262000595565b5b50919050565b613d5580620006096000396000f3fe608060405234801561001057600080fd5b506004361061014d5760003560e01c806395d89b41116100c3578063d9b92ec71161007c578063d9b92ec71461039c578063e985e9c5146103b8578063ea38bf5e146103e8578063f2fde38b14610404578063fa6ac13114610420578063ffde0c741461043e5761014d565b806395d89b41146102de5780639d82bd43146102fc578063a22cb46514610318578063b88d4fde14610334578063c544953114610350578063c87b56dd1461036c5761014d565b806342842e0e1161011557806342842e0e146102085780634e0e1a3e146102245780636352211e1461025657806370a0823114610286578063715018a6146102b65780638da5cb5b146102c05761014d565b806301ffc9a71461015257806306fdde0314610182578063081812fc146101a0578063095ea7b3146101d057806323b872dd146101ec575b600080fd5b61016c60048036038101906101679190612644565b61046e565b604051610179919061268c565b60405180910390f35b61018a610550565b6040516101979190612740565b60405180910390f35b6101ba60048036038101906101b59190612798565b6105e2565b6040516101c79190612806565b60405180910390f35b6101ea60048036038101906101e5919061284d565b610628565b005b6102066004803603810190610201919061288d565b61073f565b005b610222600480360381019061021d919061288d565b61079f565b005b61023e60048036038101906102399190612798565b6107bf565b60405161024d939291906128fc565b60405180910390f35b610270600480360381019061026b9190612798565b61088b565b60405161027d9190612806565b60405180910390f35b6102a0600480360381019061029b919061293a565b610911565b6040516102ad9190612976565b60405180910390f35b6102be6109c8565b005b6102c86109d2565b6040516102d59190612806565b60405180910390f35b6102e66109fc565b6040516102f39190612740565b60405180910390f35b61031660048036038101906103119190612ac6565b610a8e565b005b610332600480360381019061032d9190612b61565b610c2b565b005b61034e60048036038101906103499190612c42565b610c41565b005b61036a60048036038101906103659190612cf1565b610ca3565b005b61038660048036038101906103819190612798565b610dc6565b6040516103939190612740565b60405180910390f35b6103b660048036038101906103b19190612798565b610e2e565b005b6103d260048036038101906103cd9190612d31565b610f5a565b6040516103df919061268c565b60405180910390f35b61040260048036038101906103fd9190612d71565b610fee565b005b61041e6004803603810190610419919061293a565b6112b3565b005b610428611336565b6040516104359190612976565b60405180910390f35b61045860048036038101906104539190612798565b61133b565b6040516104659190613046565b60405180910390f35b60007f80ac58cd000000000000000000000000000000000000000000000000000000007bffffffffffffffffffffffffffffffffffffffffffffffffffffffff1916827bffffffffffffffffffffffffffffffffffffffffffffffffffffffff1916148061053957507f5b5e139f000000000000000000000000000000000000000000000000000000007bffffffffffffffffffffffffffffffffffffffffffffffffffffffff1916827bffffffffffffffffffffffffffffffffffffffffffffffffffffffff1916145b806105495750610548826115e8565b5b9050919050565b60606000805461055f90613097565b80601f016020809104026020016040519081016040528092919081815260200182805461058b90613097565b80156105d85780601f106105ad576101008083540402835291602001916105d8565b820191906000526020600020905b8154815290600101906020018083116105bb57829003601f168201915b5050505050905090565b60006105ed82611652565b6004600083815260200190815260200160002060009054906101000a900473ffffffffffffffffffffffffffffffffffffffff169050919050565b60006106338261088b565b90508073ffffffffffffffffffffffffffffffffffffffff168373ffffffffffffffffffffffffffffffffffffffff16036106a3576040517f08c379a000000000000000000000000000000000000000000000000000000000815260040161069a9061313a565b60405180910390fd5b8073ffffffffffffffffffffffffffffffffffffffff166106c261169d565b73ffffffffffffffffffffffffffffffffffffffff1614806106f157506106f0816106eb61169d565b610f5a565b5b610730576040517f08c379a0000000000000000000000000000000000000000000000000000000008152600401610727906131cc565b60405180910390fd5b61073a83836116a5565b505050565b61075061074a61169d565b8261175e565b61078f576040517f08c379a00000000000000000000000000000000000000000000000000000000081526004016107869061325e565b60405180910390fd5b61079a8383836117f3565b505050565b6107ba83838360405180602001604052806000815250610c41565b505050565b60076020528060005260406000206000915090508060020180546107e290613097565b80601f016020809104026020016040519081016040528092919081815260200182805461080e90613097565b801561085b5780601f106108305761010080835404028352916020019161085b565b820191906000526020600020905b81548152906001019060200180831161083e57829003601f168201915b5050505050908060040160009054906101000a900460ff16908060040160019054906101000a900460ff16905083565b60008061089783611aec565b9050600073ffffffffffffffffffffffffffffffffffffffff168173ffffffffffffffffffffffffffffffffffffffff1603610908576040517f08c379a00000000000000000000000000000000000000000000000000000000081526004016108ff906132ca565b60405180910390fd5b80915050919050565b60008073ffffffffffffffffffffffffffffffffffffffff168273ffffffffffffffffffffffffffffffffffffffff1603610981576040517f08c379a00000000000000000000000000000000000000000000000000000000081526004016109789061335c565b60405180910390fd5b600360008373ffffffffffffffffffffffffffffffffffffffff1673ffffffffffffffffffffffffffffffffffffffff168152602001908152602001600020549050919050565b6109d0611b29565b565b6000600660009054906101000a900473ffffffffffffffffffffffffffffffffffffffff16905090565b606060018054610a0b90613097565b80601f0160208091040260200160405190810160405280929190818152602001828054610a3790613097565b8015610a845780601f10610a5957610100808354040283529160200191610a84565b820191906000526020600020905b815481529060010190602001808311610a6757829003601f168201915b5050505050905090565b610a96611b29565b826000600760008381526020019081526020016000206002018054610aba90613097565b905011610afc576040517f08c379a0000000000000000000000000000000000000000000000000000000008152600401610af3906133c8565b60405180910390fd5b6007600082815260200190815260200160002060040160009054906101000a900460ff1615610b60576040517f08c379a0000000000000000000000000000000000000000000000000000000008152600401610b5790613434565b60405180910390fd5b82600760008681526020019081526020016000206002019080519060200190610b8a9291906124fa565b50600760008581526020019081526020016000206003018290806001815401808255809150506001900390600052602060002090600891828204019190066004029091909190916101000a81548163ffffffff021916908360e01c02179055507f2b579146ffff38c2d45216a5d17e1ba5295ebb76fe5da5e4731c000179be2167848484604051610c1d93929190613463565b60405180910390a150505050565b610c3d610c3661169d565b8383611ba7565b5050565b610c52610c4c61169d565b8361175e565b610c91576040517f08c379a0000000000000000000000000000000000000000000000000000000008152600401610c889061325e565b60405180910390fd5b610c9d84848484611d13565b50505050565b610cab611b29565b6001821015610cef576040517f08c379a0000000000000000000000000000000000000000000000000000000008152600401610ce6906134ed565b60405180910390fd5b6007600083815260200190815260200160002060040160009054906101000a900460ff1615610d53576040517f08c379a0000000000000000000000000000000000000000000000000000000008152600401610d4a90613559565b60405180910390fd5b610d64610d5e6109d2565b83611d6f565b60016007600084815260200190815260200160002060040160006101000a81548160ff021916908315150217905550806007600084815260200190815260200160002060040160016101000a81548160ff021916908360ff1602179055505050565b6060610dd182611652565b6000610ddb611d8d565b90506000815111610dfb5760405180602001604052806000815250610e26565b80610e0584611da4565b604051602001610e169291906135b5565b6040516020818303038152906040525b915050919050565b610e36611b29565b6001811115610eaf5760076000600183610e509190613608565b815260200190815260200160002060040160009054906101000a900460ff16610eae576040517f08c379a0000000000000000000000000000000000000000000000000000000008152600401610ea5906136ae565b60405180910390fd5b5b6000600760008381526020019081526020016000206002018054610ed290613097565b905014610f14576040517f08c379a0000000000000000000000000000000000000000000000000000000008152600401610f0b9061371a565b60405180910390fd5b604051806060016040528060388152602001613ce860389139600760008381526020019081526020016000206002019080519060200190610f569291906124fa565b5050565b6000600560008473ffffffffffffffffffffffffffffffffffffffff1673ffffffffffffffffffffffffffffffffffffffff16815260200190815260200160002060008373ffffffffffffffffffffffffffffffffffffffff1673ffffffffffffffffffffffffffffffffffffffff16815260200190815260200160002060009054906101000a900460ff16905092915050565b610ff6611b29565b81600060076000838152602001908152602001600020600201805461101a90613097565b90501161105c576040517f08c379a0000000000000000000000000000000000000000000000000000000008152600401611053906133c8565b60405180910390fd5b6007600082815260200190815260200160002060040160009054906101000a900460ff16156110c0576040517f08c379a00000000000000000000000000000000000000000000000000000000081526004016110b790613434565b60405180910390fd5b811561119e576014600760008581526020019081526020016000206001018054905010611122576040517f08c379a000000000000000000000000000000000000000000000000000000000815260040161111990613786565b60405180910390fd5b60076000848152602001908152602001600020600101849080600181540180825580915050600190039060005260206000200160009091909190916101000a81548173ffffffffffffffffffffffffffffffffffffffff021916908373ffffffffffffffffffffffffffffffffffffffff160217905550611272565b60146007600085815260200190815260200160002060000180549050106111fa576040517f08c379a00000000000000000000000000000000000000000000000000000000081526004016111f190613786565b60405180910390fd5b60076000848152602001908152602001600020600001849080600181540180825580915050600190039060005260206000200160009091909190916101000a81548173ffffffffffffffffffffffffffffffffffffffff021916908373ffffffffffffffffffffffffffffffffffffffff1602179055505b7f47b13a101802ba54d33a1965081b05bf2990a05a64d579d680911cd8261e442e8484846040516112a5939291906137a6565b60405180910390a150505050565b6112bb611b29565b600073ffffffffffffffffffffffffffffffffffffffff168173ffffffffffffffffffffffffffffffffffffffff160361132a576040517f08c379a00000000000000000000000000000000000000000000000000000000081526004016113219061384f565b60405180910390fd5b61133381611e72565b50565b601481565b611343612580565b600760008381526020019081526020016000206040518060c0016040529081600082018054806020026020016040519081016040528092919081815260200182805480156113e657602002820191906000526020600020905b8160009054906101000a900473ffffffffffffffffffffffffffffffffffffffff1673ffffffffffffffffffffffffffffffffffffffff168152602001906001019080831161139c575b505050505081526020016001820180548060200260200160405190810160405280929190818152602001828054801561147457602002820191906000526020600020905b8160009054906101000a900473ffffffffffffffffffffffffffffffffffffffff1673ffffffffffffffffffffffffffffffffffffffff168152602001906001019080831161142a575b5050505050815260200160028201805461148d90613097565b80601f01602080910402602001604051908101604052809291908181526020018280546114b990613097565b80156115065780601f106114db57610100808354040283529160200191611506565b820191906000526020600020905b8154815290600101906020018083116114e957829003601f168201915b50505050508152602001600382018054806020026020016040519081016040528092919081815260200182805480156115a057602002820191906000526020600020906000905b82829054906101000a900460e01b7bffffffffffffffffffffffffffffffffffffffffffffffffffffffff19168152602001906004019060208260030104928301926001038202915080841161154d5790505b505050505081526020016004820160009054906101000a900460ff161515151581526020016004820160019054906101000a900460ff1660ff1660ff16815250509050919050565b60007f01ffc9a7000000000000000000000000000000000000000000000000000000007bffffffffffffffffffffffffffffffffffffffffffffffffffffffff1916827bffffffffffffffffffffffffffffffffffffffffffffffffffffffff1916149050919050565b61165b81611f38565b61169a576040517f08c379a0000000000000000000000000000000000000000000000000000000008152600401611691906132ca565b60405180910390fd5b50565b600033905090565b816004600083815260200190815260200160002060006101000a81548173ffffffffffffffffffffffffffffffffffffffff021916908373ffffffffffffffffffffffffffffffffffffffff160217905550808273ffffffffffffffffffffffffffffffffffffffff166117188361088b565b73ffffffffffffffffffffffffffffffffffffffff167f8c5be1e5ebec7d5bd14f71427d1e84f3dd0314c0f7b2291e5b200ac8c7c3b92560405160405180910390a45050565b60008061176a8361088b565b90508073ffffffffffffffffffffffffffffffffffffffff168473ffffffffffffffffffffffffffffffffffffffff1614806117ac57506117ab8185610f5a565b5b806117ea57508373ffffffffffffffffffffffffffffffffffffffff166117d2846105e2565b73ffffffffffffffffffffffffffffffffffffffff16145b91505092915050565b8273ffffffffffffffffffffffffffffffffffffffff166118138261088b565b73ffffffffffffffffffffffffffffffffffffffff1614611869576040517f08c379a0000000000000000000000000000000000000000000000000000000008152600401611860906138e1565b60405180910390fd5b600073ffffffffffffffffffffffffffffffffffffffff168273ffffffffffffffffffffffffffffffffffffffff16036118d8576040517f08c379a00000000000000000000000000000000000000000000000000000000081526004016118cf90613973565b60405180910390fd5b6118e58383836001611f79565b8273ffffffffffffffffffffffffffffffffffffffff166119058261088b565b73ffffffffffffffffffffffffffffffffffffffff161461195b576040517f08c379a0000000000000000000000000000000000000000000000000000000008152600401611952906138e1565b60405180910390fd5b6004600082815260200190815260200160002060006101000a81549073ffffffffffffffffffffffffffffffffffffffff02191690556001600360008573ffffffffffffffffffffffffffffffffffffffff1673ffffffffffffffffffffffffffffffffffffffff168152602001908152602001600020600082825403925050819055506001600360008473ffffffffffffffffffffffffffffffffffffffff1673ffffffffffffffffffffffffffffffffffffffff16815260200190815260200160002060008282540192505081905550816002600083815260200190815260200160002060006101000a81548173ffffffffffffffffffffffffffffffffffffffff021916908373ffffffffffffffffffffffffffffffffffffffff160217905550808273ffffffffffffffffffffffffffffffffffffffff168473ffffffffffffffffffffffffffffffffffffffff167fddf252ad1be2c89b69c2b068fc378daa952ba7f163c4a11628f55a4df523b3ef60405160405180910390a4611ae78383836001611f7f565b505050565b60006002600083815260200190815260200160002060009054906101000a900473ffffffffffffffffffffffffffffffffffffffff169050919050565b611b3161169d565b73ffffffffffffffffffffffffffffffffffffffff16611b4f6109d2565b73ffffffffffffffffffffffffffffffffffffffff1614611ba5576040517f08c379a0000000000000000000000000000000000000000000000000000000008152600401611b9c906139df565b60405180910390fd5b565b8173ffffffffffffffffffffffffffffffffffffffff168373ffffffffffffffffffffffffffffffffffffffff1603611c15576040517f08c379a0000000000000000000000000000000000000000000000000000000008152600401611c0c90613a4b565b60405180910390fd5b80600560008573ffffffffffffffffffffffffffffffffffffffff1673ffffffffffffffffffffffffffffffffffffffff16815260200190815260200160002060008473ffffffffffffffffffffffffffffffffffffffff1673ffffffffffffffffffffffffffffffffffffffff16815260200190815260200160002060006101000a81548160ff0219169083151502179055508173ffffffffffffffffffffffffffffffffffffffff168373ffffffffffffffffffffffffffffffffffffffff167f17307eab39ab6107e8899845ad3d59bd9653f200f220920489ca2b5937696c3183604051611d06919061268c565b60405180910390a3505050565b611d1e8484846117f3565b611d2a84848484611f85565b611d69576040517f08c379a0000000000000000000000000000000000000000000000000000000008152600401611d6090613add565b60405180910390fd5b50505050565b611d8982826040518060200160405280600081525061210c565b5050565b606060405180602001604052806000815250905090565b606060006001611db384612167565b01905060008167ffffffffffffffff811115611dd257611dd161299b565b5b6040519080825280601f01601f191660200182016040528015611e045781602001600182028036833780820191505090505b509050600082602001820190505b600115611e67578080600190039150507f3031323334353637383961626364656600000000000000000000000000000000600a86061a8153600a8581611e5b57611e5a613afd565b5b04945060008503611e12575b819350505050919050565b6000600660009054906101000a900473ffffffffffffffffffffffffffffffffffffffff16905081600660006101000a81548173ffffffffffffffffffffffffffffffffffffffff021916908373ffffffffffffffffffffffffffffffffffffffff1602179055508173ffffffffffffffffffffffffffffffffffffffff168173ffffffffffffffffffffffffffffffffffffffff167f8be0079c531659141344cd1fd0a4f28419497f9722a3daafe3b4186f6b6457e060405160405180910390a35050565b60008073ffffffffffffffffffffffffffffffffffffffff16611f5a83611aec565b73ffffffffffffffffffffffffffffffffffffffff1614159050919050565b50505050565b50505050565b6000611fa68473ffffffffffffffffffffffffffffffffffffffff166122ba565b156120ff578373ffffffffffffffffffffffffffffffffffffffff1663150b7a02611fcf61169d565b8786866040518563ffffffff1660e01b8152600401611ff19493929190613b81565b6020604051808303816000875af192505050801561202d57506040513d601f19601f8201168201806040525081019061202a9190613be2565b60015b6120af573d806000811461205d576040519150601f19603f3d011682016040523d82523d6000602084013e612062565b606091505b5060008151036120a7576040517f08c379a000000000000000000000000000000000000000000000000000000000815260040161209e90613add565b60405180910390fd5b805181602001fd5b63150b7a0260e01b7bffffffffffffffffffffffffffffffffffffffffffffffffffffffff1916817bffffffffffffffffffffffffffffffffffffffffffffffffffffffff191614915050612104565b600190505b949350505050565b61211683836122dd565b6121236000848484611f85565b612162576040517f08c379a000000000000000000000000000000000000000000000000000000000815260040161215990613add565b60405180910390fd5b505050565b600080600090507a184f03e93ff9f4daa797ed6e38ed64bf6a1f01000000000000000083106121c5577a184f03e93ff9f4daa797ed6e38ed64bf6a1f01000000000000000083816121bb576121ba613afd565b5b0492506040810190505b6d04ee2d6d415b85acef81000000008310612202576d04ee2d6d415b85acef810000000083816121f8576121f7613afd565b5b0492506020810190505b662386f26fc10000831061223157662386f26fc10000838161222757612226613afd565b5b0492506010810190505b6305f5e100831061225a576305f5e10083816122505761224f613afd565b5b0492506008810190505b612710831061227f57612710838161227557612274613afd565b5b0492506004810190505b606483106122a2576064838161229857612297613afd565b5b0492506002810190505b600a83106122b1576001810190505b80915050919050565b6000808273ffffffffffffffffffffffffffffffffffffffff163b119050919050565b600073ffffffffffffffffffffffffffffffffffffffff168273ffffffffffffffffffffffffffffffffffffffff160361234c576040517f08c379a000000000000000000000000000000000000000000000000000000000815260040161234390613c5b565b60405180910390fd5b61235581611f38565b15612395576040517f08c379a000000000000000000000000000000000000000000000000000000000815260040161238c90613cc7565b60405180910390fd5b6123a3600083836001611f79565b6123ac81611f38565b156123ec576040517f08c379a00000000000000000000000000000000000000000000000000000000081526004016123e390613cc7565b60405180910390fd5b6001600360008473ffffffffffffffffffffffffffffffffffffffff1673ffffffffffffffffffffffffffffffffffffffff16815260200190815260200160002060008282540192505081905550816002600083815260200190815260200160002060006101000a81548173ffffffffffffffffffffffffffffffffffffffff021916908373ffffffffffffffffffffffffffffffffffffffff160217905550808273ffffffffffffffffffffffffffffffffffffffff16600073ffffffffffffffffffffffffffffffffffffffff167fddf252ad1be2c89b69c2b068fc378daa952ba7f163c4a11628f55a4df523b3ef60405160405180910390a46124f6600083836001611f7f565b5050565b82805461250690613097565b90600052602060002090601f016020900481019282612528576000855561256f565b82601f1061254157805160ff191683800117855561256f565b8280016001018555821561256f579182015b8281111561256e578251825591602001919060010190612553565b5b50905061257c91906125bb565b5090565b6040518060c0016040528060608152602001606081526020016060815260200160608152602001600015158152602001600060ff1681525090565b5b808211156125d45760008160009055506001016125bc565b5090565b6000604051905090565b600080fd5b600080fd5b60007fffffffff0000000000000000000000000000000000000000000000000000000082169050919050565b612621816125ec565b811461262c57600080fd5b50565b60008135905061263e81612618565b92915050565b60006020828403121561265a576126596125e2565b5b60006126688482850161262f565b91505092915050565b60008115159050919050565b61268681612671565b82525050565b60006020820190506126a1600083018461267d565b92915050565b600081519050919050565b600082825260208201905092915050565b60005b838110156126e15780820151818401526020810190506126c6565b838111156126f0576000848401525b50505050565b6000601f19601f8301169050919050565b6000612712826126a7565b61271c81856126b2565b935061272c8185602086016126c3565b612735816126f6565b840191505092915050565b6000602082019050818103600083015261275a8184612707565b905092915050565b6000819050919050565b61277581612762565b811461278057600080fd5b50565b6000813590506127928161276c565b92915050565b6000602082840312156127ae576127ad6125e2565b5b60006127bc84828501612783565b91505092915050565b600073ffffffffffffffffffffffffffffffffffffffff82169050919050565b60006127f0826127c5565b9050919050565b612800816127e5565b82525050565b600060208201905061281b60008301846127f7565b92915050565b61282a816127e5565b811461283557600080fd5b50565b60008135905061284781612821565b92915050565b60008060408385031215612864576128636125e2565b5b600061287285828601612838565b925050602061288385828601612783565b9150509250929050565b6000806000606084860312156128a6576128a56125e2565b5b60006128b486828701612838565b93505060206128c586828701612838565b92505060406128d686828701612783565b9150509250925092565b600060ff82169050919050565b6128f6816128e0565b82525050565b600060608201905081810360008301526129168186612707565b9050612925602083018561267d565b61293260408301846128ed565b949350505050565b6000602082840312156129505761294f6125e2565b5b600061295e84828501612838565b91505092915050565b61297081612762565b82525050565b600060208201905061298b6000830184612967565b92915050565b600080fd5b600080fd5b7f4e487b7100000000000000000000000000000000000000000000000000000000600052604160045260246000fd5b6129d3826126f6565b810181811067ffffffffffffffff821117156129f2576129f161299b565b5b80604052505050565b6000612a056125d8565b9050612a1182826129ca565b919050565b600067ffffffffffffffff821115612a3157612a3061299b565b5b612a3a826126f6565b9050602081019050919050565b82818337600083830152505050565b6000612a69612a6484612a16565b6129fb565b905082815260208101848484011115612a8557612a84612996565b5b612a90848285612a47565b509392505050565b600082601f830112612aad57612aac612991565b5b8135612abd848260208601612a56565b91505092915050565b600080600060608486031215612adf57612ade6125e2565b5b6000612aed86828701612783565b935050602084013567ffffffffffffffff811115612b0e57612b0d6125e7565b5b612b1a86828701612a98565b9250506040612b2b8682870161262f565b9150509250925092565b612b3e81612671565b8114612b4957600080fd5b50565b600081359050612b5b81612b35565b92915050565b60008060408385031215612b7857612b776125e2565b5b6000612b8685828601612838565b9250506020612b9785828601612b4c565b9150509250929050565b600067ffffffffffffffff821115612bbc57612bbb61299b565b5b612bc5826126f6565b9050602081019050919050565b6000612be5612be084612ba1565b6129fb565b905082815260208101848484011115612c0157612c00612996565b5b612c0c848285612a47565b509392505050565b600082601f830112612c2957612c28612991565b5b8135612c39848260208601612bd2565b91505092915050565b60008060008060808587031215612c5c57612c5b6125e2565b5b6000612c6a87828801612838565b9450506020612c7b87828801612838565b9350506040612c8c87828801612783565b925050606085013567ffffffffffffffff811115612cad57612cac6125e7565b5b612cb987828801612c14565b91505092959194509250565b612cce816128e0565b8114612cd957600080fd5b50565b600081359050612ceb81612cc5565b92915050565b60008060408385031215612d0857612d076125e2565b5b6000612d1685828601612783565b9250506020612d2785828601612cdc565b9150509250929050565b60008060408385031215612d4857612d476125e2565b5b6000612d5685828601612838565b9250506020612d6785828601612838565b9150509250929050565b600080600060608486031215612d8a57612d896125e2565b5b6000612d9886828701612838565b9350506020612da986828701612783565b9250506040612dba86828701612b4c565b9150509250925092565b600081519050919050565b600082825260208201905092915050565b6000819050602082019050919050565b612df9816127e5565b82525050565b6000612e0b8383612df0565b60208301905092915050565b6000602082019050919050565b6000612e2f82612dc4565b612e398185612dcf565b9350612e4483612de0565b8060005b83811015612e75578151612e5c8882612dff565b9750612e6783612e17565b925050600181019050612e48565b5085935050505092915050565b600082825260208201905092915050565b6000612e9e826126a7565b612ea88185612e82565b9350612eb88185602086016126c3565b612ec1816126f6565b840191505092915050565b600081519050919050565b600082825260208201905092915050565b6000819050602082019050919050565b612f01816125ec565b82525050565b6000612f138383612ef8565b60208301905092915050565b6000602082019050919050565b6000612f3782612ecc565b612f418185612ed7565b9350612f4c83612ee8565b8060005b83811015612f7d578151612f648882612f07565b9750612f6f83612f1f565b925050600181019050612f50565b5085935050505092915050565b612f9381612671565b82525050565b612fa2816128e0565b82525050565b600060c0830160008301518482036000860152612fc58282612e24565b91505060208301518482036020860152612fdf8282612e24565b91505060408301518482036040860152612ff98282612e93565b915050606083015184820360608601526130138282612f2c565b91505060808301516130286080860182612f8a565b5060a083015161303b60a0860182612f99565b508091505092915050565b600060208201905081810360008301526130608184612fa8565b905092915050565b7f4e487b7100000000000000000000000000000000000000000000000000000000600052602260045260246000fd5b600060028204905060018216806130af57607f821691505b6020821081036130c2576130c1613068565b5b50919050565b7f4552433732313a20617070726f76616c20746f2063757272656e74206f776e6560008201527f7200000000000000000000000000000000000000000000000000000000000000602082015250565b60006131246021836126b2565b915061312f826130c8565b604082019050919050565b6000602082019050818103600083015261315381613117565b9050919050565b7f4552433732313a20617070726f76652063616c6c6572206973206e6f7420746f60008201527f6b656e206f776e6572206f7220617070726f76656420666f7220616c6c000000602082015250565b60006131b6603d836126b2565b91506131c18261315a565b604082019050919050565b600060208201905081810360008301526131e5816131a9565b9050919050565b7f4552433732313a2063616c6c6572206973206e6f7420746f6b656e206f776e6560008201527f72206f7220617070726f76656400000000000000000000000000000000000000602082015250565b6000613248602d836126b2565b9150613253826131ec565b604082019050919050565b600060208201905081810360008301526132778161323b565b9050919050565b7f4552433732313a20696e76616c696420746f6b656e2049440000000000000000600082015250565b60006132b46018836126b2565b91506132bf8261327e565b602082019050919050565b600060208201905081810360008301526132e3816132a7565b9050919050565b7f4552433732313a2061646472657373207a65726f206973206e6f74206120766160008201527f6c6964206f776e65720000000000000000000000000000000000000000000000602082015250565b60006133466029836126b2565b9150613351826132ea565b604082019050919050565b6000602082019050818103600083015261337581613339565b9050919050565b7f67616d65206e6f74206372656174656400000000000000000000000000000000600082015250565b60006133b26010836126b2565b91506133bd8261337c565b602082019050919050565b600060208201905081810360008301526133e1816133a5565b9050919050565b7f67616d6520616c726561647920636f6d706c6574650000000000000000000000600082015250565b600061341e6015836126b2565b9150613429826133e8565b602082019050919050565b6000602082019050818103600083015261344d81613411565b9050919050565b61345d816125ec565b82525050565b60006060820190506134786000830186612967565b818103602083015261348a8185612707565b90506134996040830184613454565b949350505050565b7f67616d6520746f6b656e20696e76616c69640000000000000000000000000000600082015250565b60006134d76012836126b2565b91506134e2826134a1565b602082019050919050565b60006020820190508181036000830152613506816134ca565b9050919050565b7f67616d6520616c726561647920636f6d706c6574656400000000000000000000600082015250565b60006135436016836126b2565b915061354e8261350d565b602082019050919050565b6000602082019050818103600083015261357281613536565b9050919050565b600081905092915050565b600061358f826126a7565b6135998185613579565b93506135a98185602086016126c3565b80840191505092915050565b60006135c18285613584565b91506135cd8284613584565b91508190509392505050565b7f4e487b7100000000000000000000000000000000000000000000000000000000600052601160045260246000fd5b600061361382612762565b915061361e83612762565b925082821015613631576136306135d9565b5b828203905092915050565b7f70726576696f75732067616d65206e6f7420636f6d706c6574652c2063616e6e60008201527f6f74207374617274206e6578742067616d650000000000000000000000000000602082015250565b60006136986032836126b2565b91506136a38261363c565b604082019050919050565b600060208201905081810360008301526136c78161368b565b9050919050565b7f67616d6520737461746520657869737473000000000000000000000000000000600082015250565b60006137046011836126b2565b915061370f826136ce565b602082019050919050565b60006020820190508181036000830152613733816136f7565b9050919050565b7f6d617820323020706c6179657273207065722073696465000000000000000000600082015250565b60006137706017836126b2565b915061377b8261373a565b602082019050919050565b6000602082019050818103600083015261379f81613763565b9050919050565b60006060820190506137bb60008301866127f7565b6137c86020830185612967565b6137d5604083018461267d565b949350505050565b7f4f776e61626c653a206e6577206f776e657220697320746865207a65726f206160008201527f6464726573730000000000000000000000000000000000000000000000000000602082015250565b60006138396026836126b2565b9150613844826137dd565b604082019050919050565b600060208201905081810360008301526138688161382c565b9050919050565b7f4552433732313a207472616e736665722066726f6d20696e636f72726563742060008201527f6f776e6572000000000000000000000000000000000000000000000000000000602082015250565b60006138cb6025836126b2565b91506138d68261386f565b604082019050919050565b600060208201905081810360008301526138fa816138be565b9050919050565b7f4552433732313a207472616e7366657220746f20746865207a65726f2061646460008201527f7265737300000000000000000000000000000000000000000000000000000000602082015250565b600061395d6024836126b2565b915061396882613901565b604082019050919050565b6000602082019050818103600083015261398c81613950565b9050919050565b7f4f776e61626c653a2063616c6c6572206973206e6f7420746865206f776e6572600082015250565b60006139c96020836126b2565b91506139d482613993565b602082019050919050565b600060208201905081810360008301526139f8816139bc565b9050919050565b7f4552433732313a20617070726f766520746f2063616c6c657200000000000000600082015250565b6000613a356019836126b2565b9150613a40826139ff565b602082019050919050565b60006020820190508181036000830152613a6481613a28565b9050919050565b7f4552433732313a207472616e7366657220746f206e6f6e20455243373231526560008201527f63656976657220696d706c656d656e7465720000000000000000000000000000602082015250565b6000613ac76032836126b2565b9150613ad282613a6b565b604082019050919050565b60006020820190508181036000830152613af681613aba565b9050919050565b7f4e487b7100000000000000000000000000000000000000000000000000000000600052601260045260246000fd5b600081519050919050565b600082825260208201905092915050565b6000613b5382613b2c565b613b5d8185613b37565b9350613b6d8185602086016126c3565b613b76816126f6565b840191505092915050565b6000608082019050613b9660008301876127f7565b613ba360208301866127f7565b613bb06040830185612967565b8181036060830152613bc28184613b48565b905095945050505050565b600081519050613bdc81612618565b92915050565b600060208284031215613bf857613bf76125e2565b5b6000613c0684828501613bcd565b91505092915050565b7f4552433732313a206d696e7420746f20746865207a65726f2061646472657373600082015250565b6000613c456020836126b2565b9150613c5082613c0f565b602082019050919050565b60006020820190508181036000830152613c7481613c38565b9050919050565b7f4552433732313a20746f6b656e20616c7265616479206d696e74656400000000600082015250565b6000613cb1601c836126b2565b9150613cbc82613c7b565b602082019050919050565b60006020820190508181036000830152613ce081613ca4565b905091905056fe726e62716b626e722f70707070707070702f382f382f382f382f50505050505050502f524e42514b424e522077204b516b71202d20302031a2646970667358221220a9bc171772c81fa46b92b390d53cf378ca6db164cea192e3a8e45de1eda8c32564736f6c634300080d0033",
  "immutableReferences": {},
  "source": "// SPDX-License-Identifier: MIT\n\npragma solidity ^0.8.13;\n\nimport \"../interfaces/IFKCGame.sol\";\nimport \"@openzeppelin/contracts/token/ERC721/ERC721.sol\";\nimport \"@openzeppelin/contracts/access/Ownable.sol\";\n\n/// @title FKCGame\n/// @dev This contract represents the FortKnightChess game and is an ERC721 token.\n/// Each token represents a unique game session, and the contract tracks the state of each game.\ncontract FKCGame is IFKCGame, ERC721, Ownable {\n    \n    /// @notice Maximum number of players per side in a game.\n    uint256 public constant MAX_USERS = 20;\n\n    /// @dev Mapping from token ID to its game state.\n    mapping(uint256 => GameState) public gameState;\n\n    /// @notice Emitted when a user is added to a game.\n    /// @param user Address of the user being added.\n    /// @param tokenId ID of the game.\n    /// @param addBlack Flag indicating whether the user was added to the black side.\n    event UserAdded(address user, uint256 tokenId, bool addBlack);\n\n    /// @notice Emitted when a game's state is updated.\n    /// @param tokenId ID of the game being updated.\n    /// @param state New state of the game.\n    /// @param move Most recent move in the game.\n    event GameStateUpdated(uint256 tokenId, string state, bytes4 move);\n\n    /// @dev Initializes the FKCGame contract, setting its name and symbol.\n    /// Transfers ownership to a specified address.\n    /// @param _owner Address that will become the initial owner of the contract.\n    constructor(address _owner) ERC721(\"FKC\", \"FortKnightChess\") {\n        transferOwnership(_owner);\n    }\n\n    /// @dev Modifier to ensure a game with a given token ID has started and hasn't completed yet.\n    modifier gameStarted(uint256 tokenId) {\n        require(bytes(gameState[tokenId].currentGameState).length > 0, 'game not created');\n        require(!gameState[tokenId].gameCompleted, 'game already complete');\n        _;\n    }\n\n    /// @notice Fetches the current state of a game by its token ID.\n    /// @param tokenId ID of the game whose state is to be fetched.\n    /// @return GameState The current state of the game.\n    function getGameState(uint256 tokenId) external virtual view returns (GameState memory) {\n        return gameState[tokenId];\n    }\n\n    /// @notice Updates the state of a game.\n    /// Can only be called by the contract owner for an ongoing game.\n    /// @param tokenId ID of the game to be updated.\n    /// @param state New state for the game.\n    /// @param move The most recent move in the game.\n    function updateGameState(\n        uint256 tokenId,\n        string memory state,\n        bytes4 move\n    ) external virtual onlyOwner gameStarted(tokenId) {\n        gameState[tokenId].currentGameState = state;\n        gameState[tokenId].movesHistory.push(move);\n        emit GameStateUpdated(tokenId, state, move);\n    }\n\n    /// @notice Adds a user to a game, either on the black or white side.\n    /// @param user Address of the user being added.\n    /// @param tokenId ID of the game the user is being added to.\n    /// @param addBlack Flag indicating whether to add the user to the black side.\n    function addUserToGame(\n        address user,\n        uint256 tokenId,\n        bool addBlack\n    ) external virtual onlyOwner gameStarted(tokenId) {\n        if (addBlack) {\n            require(gameState[tokenId].blackPlayers.length < MAX_USERS, 'max 20 players per side');\n            gameState[tokenId].blackPlayers.push(user);\n        } else {\n            require(gameState[tokenId].whitePlayers.length < MAX_USERS, 'max 20 players per side');\n            gameState[tokenId].whitePlayers.push(user);\n        }\n        emit UserAdded(user, tokenId, addBlack);\n    }\n\n    /// @notice Ends a game and mints the associated ERC721 token to the owner.\n    /// @param tokenId ID of the game to be ended.\n    /// @param result Result of the game (e.g., win/lose/draw).\n    function endGame(uint256 tokenId, uint8 result) external virtual onlyOwner {\n        require(tokenId >= 1, \"game token invalid\");\n        require(!gameState[tokenId].gameCompleted, \"game already completed\");\n\n        _safeMint(owner(), tokenId);\n        gameState[tokenId].gameCompleted = true;\n        gameState[tokenId].result = result;\n    }\n\n    /// @notice Mints a token for the next game.\n    /// Ensures the previous game is completed before starting a new one.\n    /// @param tokenId ID for the new game to be minted.\n    function mintNextGame(uint256 tokenId) external virtual onlyOwner {\n        if (tokenId > 1) {\n            require(gameState[tokenId - 1].gameCompleted, 'previous game not complete, cannot start next game');\n        }\n        require(bytes(gameState[tokenId].currentGameState).length == 0, \"game state exists\");\n        \n        gameState[tokenId].currentGameState = \"rnbqkbnr/pppppppp/8/8/8/8/PPPPPPPP/RNBQKBNR w KQkq - 0 1\";\n    }\n\n    /// @dev Overridden to disable renouncing of ownership.\n    function renounceOwnership() public override virtual onlyOwner {\n        // do nothing\n    }\n}\n",
  "sourcePath": "/Users/sprect8/development/hackathon/navh/kingscounsel/kc-blockchain/contracts/tokens/FKCGame.sol",
  "compiler": {
    "name": "solc",
    "version": "0.8.13+commit.abaa5c0e.Emscripten.clang"
  },
  "schemaVersion": "3.4.15",
  "updatedAt": "2023-08-21T14:35:16.040Z",
  "networkType": "ethereum",
  "devdoc": {
    "details": "This contract represents the FortKnightChess game and is an ERC721 token. Each token represents a unique game session, and the contract tracks the state of each game.",
    "events": {
      "GameStateUpdated(uint256,string,bytes4)": {
        "params": {
          "move": "Most recent move in the game.",
          "state": "New state of the game.",
          "tokenId": "ID of the game being updated."
        }
      },
      "UserAdded(address,uint256,bool)": {
        "params": {
          "addBlack": "Flag indicating whether the user was added to the black side.",
          "tokenId": "ID of the game.",
          "user": "Address of the user being added."
        }
      }
    },
    "kind": "dev",
    "methods": {
      "addUserToGame(address,uint256,bool)": {
        "params": {
          "addBlack": "Flag indicating whether to add the user to the black side.",
          "tokenId": "ID of the game the user is being added to.",
          "user": "Address of the user being added."
        }
      },
      "approve(address,uint256)": {
        "details": "See {IERC721-approve}."
      },
      "balanceOf(address)": {
        "details": "See {IERC721-balanceOf}."
      },
      "constructor": {
        "details": "Initializes the FKCGame contract, setting its name and symbol. Transfers ownership to a specified address.",
        "params": {
          "_owner": "Address that will become the initial owner of the contract."
        }
      },
      "endGame(uint256,uint8)": {
        "params": {
          "result": "Result of the game (e.g., win/lose/draw).",
          "tokenId": "ID of the game to be ended."
        }
      },
      "getApproved(uint256)": {
        "details": "See {IERC721-getApproved}."
      },
      "getGameState(uint256)": {
        "params": {
          "tokenId": "ID of the game whose state is to be fetched."
        },
        "returns": {
          "_0": "GameState The current state of the game."
        }
      },
      "isApprovedForAll(address,address)": {
        "details": "See {IERC721-isApprovedForAll}."
      },
      "mintNextGame(uint256)": {
        "params": {
          "tokenId": "ID for the new game to be minted."
        }
      },
      "name()": {
        "details": "See {IERC721Metadata-name}."
      },
      "owner()": {
        "details": "Returns the address of the current owner."
      },
      "ownerOf(uint256)": {
        "details": "See {IERC721-ownerOf}."
      },
      "renounceOwnership()": {
        "details": "Overridden to disable renouncing of ownership."
      },
      "safeTransferFrom(address,address,uint256)": {
        "details": "See {IERC721-safeTransferFrom}."
      },
      "safeTransferFrom(address,address,uint256,bytes)": {
        "details": "See {IERC721-safeTransferFrom}."
      },
      "setApprovalForAll(address,bool)": {
        "details": "See {IERC721-setApprovalForAll}."
      },
      "supportsInterface(bytes4)": {
        "details": "See {IERC165-supportsInterface}."
      },
      "symbol()": {
        "details": "See {IERC721Metadata-symbol}."
      },
      "tokenURI(uint256)": {
        "details": "See {IERC721Metadata-tokenURI}."
      },
      "transferFrom(address,address,uint256)": {
        "details": "See {IERC721-transferFrom}."
      },
      "transferOwnership(address)": {
        "details": "Transfers ownership of the contract to a new account (`newOwner`). Can only be called by the current owner."
      },
      "updateGameState(uint256,string,bytes4)": {
        "params": {
          "move": "The most recent move in the game.",
          "state": "New state for the game.",
          "tokenId": "ID of the game to be updated."
        }
      }
    },
    "stateVariables": {
      "gameState": {
        "details": "Mapping from token ID to its game state."
      }
    },
    "title": "FKCGame",
    "version": 1
  },
  "userdoc": {
    "events": {
      "GameStateUpdated(uint256,string,bytes4)": {
        "notice": "Emitted when a game's state is updated."
      },
      "UserAdded(address,uint256,bool)": {
        "notice": "Emitted when a user is added to a game."
      }
    },
    "kind": "user",
    "methods": {
      "MAX_USERS()": {
        "notice": "Maximum number of players per side in a game."
      },
      "addUserToGame(address,uint256,bool)": {
        "notice": "Adds a user to a game, either on the black or white side."
      },
      "endGame(uint256,uint8)": {
        "notice": "Ends a game and mints the associated ERC721 token to the owner."
      },
      "getGameState(uint256)": {
        "notice": "Fetches the current state of a game by its token ID."
      },
      "mintNextGame(uint256)": {
        "notice": "Mints a token for the next game. Ensures the previous game is completed before starting a new one."
      },
      "updateGameState(uint256,string,bytes4)": {
        "notice": "Updates the state of a game. Can only be called by the contract owner for an ongoing game."
      }
    },
    "version": 1
  }
}